{
  "contractName": "RarinonAuction",
  "abi": [
    {
      "inputs": [
        {
          "internalType": "address",
          "name": "nft",
          "type": "address"
        }
      ],
      "stateMutability": "nonpayable",
      "type": "constructor"
    },
    {
      "stateMutability": "payable",
      "type": "receive"
    },
    {
      "inputs": [
        {
          "internalType": "uint256",
          "name": "tokenId",
          "type": "uint256"
        }
      ],
      "name": "createRound",
      "outputs": [],
      "stateMutability": "nonpayable",
      "type": "function"
    },
    {
      "inputs": [],
      "name": "createBid",
      "outputs": [],
      "stateMutability": "payable",
      "type": "function"
    },
    {
      "inputs": [],
      "name": "canClose",
      "outputs": [
        {
          "internalType": "bool",
          "name": "",
          "type": "bool"
        }
      ],
      "stateMutability": "view",
      "type": "function"
    },
    {
      "inputs": [],
      "name": "close",
      "outputs": [],
      "stateMutability": "nonpayable",
      "type": "function"
    }
  ],
  "bytecode": "0x608060405234801561001057600080fd5b5060405162000f9338038062000f93833981810160405281019061003491906100dd565b806000806101000a81548173ffffffffffffffffffffffffffffffffffffffff021916908373ffffffffffffffffffffffffffffffffffffffff1602179055505061010a565b600080fd5b600073ffffffffffffffffffffffffffffffffffffffff82169050919050565b60006100aa8261007f565b9050919050565b6100ba8161009f565b81146100c557600080fd5b50565b6000815190506100d7816100b1565b92915050565b6000602082840312156100f3576100f261007a565b5b6000610101848285016100c8565b91505092915050565b610e79806200011a6000396000f3fe6080604052600436106100435760003560e01c80633da1bba11461004f57806343d726d614610078578063836240741461008f578063f7049d78146100995761004a565b3661004a57005b600080fd5b34801561005b57600080fd5b5061007660048036038101906100719190610a47565b6100c4565b005b34801561008457600080fd5b5061008d610237565b005b61009761054e565b005b3480156100a557600080fd5b506100ae6107a4565b6040516100bb9190610a8f565b60405180910390f35b600060028054905014806101185750600260016002805490506100e79190610ad9565b815481106100f8576100f7610b0d565b5b906000526020600020906005020160020160009054906101000a900460ff165b610157576040517f08c379a000000000000000000000000000000000000000000000000000000000815260040161014e90610b99565b60405180910390fd5b60608060006040518060a001604052808581526020016001544261017b9190610bb9565b81526020016000151581526020018481526020018381525090506002819080600181540180825580915050600190039060005260206000209060050201600090919091909150600082015181600001556020820151816001015560408201518160020160006101000a81548160ff0219169083151502179055506060820151816003019080519060200190610211929190610918565b50608082015181600401908051906020019061022e9291906109a2565b50505050505050565b61023f6107a4565b61027e576040517f08c379a000000000000000000000000000000000000000000000000000000000815260040161027590610c5b565b60405180910390fd5b6000600260016002805490506102949190610ad9565b815481106102a5576102a4610b0d565b5b90600052602060002090600502016040518060a001604052908160008201548152602001600182015481526020016002820160009054906101000a900460ff161515151581526020016003820180548060200260200160405190810160405280929190818152602001828054801561037257602002820191906000526020600020905b8160009054906101000a900473ffffffffffffffffffffffffffffffffffffffff1673ffffffffffffffffffffffffffffffffffffffff1681526020019060010190808311610328575b50505050508152602001600482018054806020026020016040519081016040528092919081815260200182805480156103ca57602002820191906000526020600020905b8154815260200190600101908083116103b6575b50505050508152505090506001816040019015159081151581525050600081606001515111156104bb5760008054906101000a900473ffffffffffffffffffffffffffffffffffffffff1673ffffffffffffffffffffffffffffffffffffffff166342842e0e30836060015160018560600151516104489190610ad9565b8151811061045957610458610b0d565b5b602002602001015184600001516040518463ffffffff1660e01b815260040161048493929190610ccb565b600060405180830381600087803b15801561049e57600080fd5b505af11580156104b2573d6000803e3d6000fd5b5050505061054b565b60008054906101000a900473ffffffffffffffffffffffffffffffffffffffff1673ffffffffffffffffffffffffffffffffffffffff166342966c6882600001516040518263ffffffff1660e01b81526004016105189190610d02565b600060405180830381600087803b15801561053257600080fd5b505af1158015610546573d6000803e3d6000fd5b505050505b50565b6000600260016002805490506105649190610ad9565b8154811061057557610574610b0d565b5b9060005260206000209060050201905060008082600401805490501161059c5760006105d1565b81600401600183600401805490506105b49190610ad9565b815481106105c5576105c4610b0d565b5b90600052602060002001545b90506000600a600d836105e49190610d1d565b6105ee9190610da6565b9050803411610632576040517f08c379a000000000000000000000000000000000000000000000000000000000815260040161062990610e23565b60405180910390fd5b82600301339080600181540180825580915050600190039060005260206000200160009091909190916101000a81548173ffffffffffffffffffffffffffffffffffffffff021916908373ffffffffffffffffffffffffffffffffffffffff1602179055508260040134908060018154018082558091505060019003906000526020600020016000909190919091505560028360030180549050111561079f57600083600401805490509050836003016002826106ef9190610ad9565b81548110610700576106ff610b0d565b5b9060005260206000200160009054906101000a900473ffffffffffffffffffffffffffffffffffffffff1673ffffffffffffffffffffffffffffffffffffffff166108fc856004016002846107559190610ad9565b8154811061076657610765610b0d565b5b90600052602060002001549081150290604051600060405180830381858888f1935050505015801561079c573d6000803e3d6000fd5b50505b505050565b600080600260016002805490506107bb9190610ad9565b815481106107cc576107cb610b0d565b5b90600052602060002090600502016040518060a001604052908160008201548152602001600182015481526020016002820160009054906101000a900460ff161515151581526020016003820180548060200260200160405190810160405280929190818152602001828054801561089957602002820191906000526020600020905b8160009054906101000a900473ffffffffffffffffffffffffffffffffffffffff1673ffffffffffffffffffffffffffffffffffffffff168152602001906001019080831161084f575b50505050508152602001600482018054806020026020016040519081016040528092919081815260200182805480156108f157602002820191906000526020600020905b8154815260200190600101908083116108dd575b50505050508152505090508060400151158015610912575080602001514210155b91505090565b828054828255906000526020600020908101928215610991579160200282015b828111156109905782518260006101000a81548173ffffffffffffffffffffffffffffffffffffffff021916908373ffffffffffffffffffffffffffffffffffffffff16021790555091602001919060010190610938565b5b50905061099e91906109ef565b5090565b8280548282559060005260206000209081019282156109de579160200282015b828111156109dd5782518255916020019190600101906109c2565b5b5090506109eb91906109ef565b5090565b5b80821115610a085760008160009055506001016109f0565b5090565b600080fd5b6000819050919050565b610a2481610a11565b8114610a2f57600080fd5b50565b600081359050610a4181610a1b565b92915050565b600060208284031215610a5d57610a5c610a0c565b5b6000610a6b84828501610a32565b91505092915050565b60008115159050919050565b610a8981610a74565b82525050565b6000602082019050610aa46000830184610a80565b92915050565b7f4e487b7100000000000000000000000000000000000000000000000000000000600052601160045260246000fd5b6000610ae482610a11565b9150610aef83610a11565b925082821015610b0257610b01610aaa565b5b828203905092915050565b7f4e487b7100000000000000000000000000000000000000000000000000000000600052603260045260246000fd5b600082825260208201905092915050565b7f41756374696f6e20696e2070726f677265737300000000000000000000000000600082015250565b6000610b83601383610b3c565b9150610b8e82610b4d565b602082019050919050565b60006020820190508181036000830152610bb281610b76565b9050919050565b6000610bc482610a11565b9150610bcf83610a11565b9250827fffffffffffffffffffffffffffffffffffffffffffffffffffffffffffffffff03821115610c0457610c03610aaa565b5b828201905092915050565b7f43616e206e6f7420636c6f73652061756374696f6e206e6f772e000000000000600082015250565b6000610c45601a83610b3c565b9150610c5082610c0f565b602082019050919050565b60006020820190508181036000830152610c7481610c38565b9050919050565b600073ffffffffffffffffffffffffffffffffffffffff82169050919050565b6000610ca682610c7b565b9050919050565b610cb681610c9b565b82525050565b610cc581610a11565b82525050565b6000606082019050610ce06000830186610cad565b610ced6020830185610cad565b610cfa6040830184610cbc565b949350505050565b6000602082019050610d176000830184610cbc565b92915050565b6000610d2882610a11565b9150610d3383610a11565b9250817fffffffffffffffffffffffffffffffffffffffffffffffffffffffffffffffff0483118215151615610d6c57610d6b610aaa565b5b828202905092915050565b7f4e487b7100000000000000000000000000000000000000000000000000000000600052601260045260246000fd5b6000610db182610a11565b9150610dbc83610a11565b925082610dcc57610dcb610d77565b5b828204905092915050565b7f42696420697320746f6f206c6f772e0000000000000000000000000000000000600082015250565b6000610e0d600f83610b3c565b9150610e1882610dd7565b602082019050919050565b60006020820190508181036000830152610e3c81610e00565b905091905056fea264697066735822122050a4c44010a5288c78a3bb2a51d9262e13cf967760b8ada188cbb87dfb424f5764736f6c634300080a0033",
  "immutableReferences": {},
  "source": "// SPDX-License-Identifier: MIT\r\npragma solidity 0.8.10;\r\n\r\n//         .\r\n//    NFT .\r\n\r\ninterface IERC721 {\r\n    /**\r\n     * @dev Returns the number of tokens in ``owner``'s account.\r\n     */\r\n    function balanceOf(address owner) external view returns (uint256 balance);\r\n\r\n    /**\r\n     * @dev See {IERC721-safeTransferFrom}.\r\n     */\r\n    function safeTransferFrom(address from, address to, uint256 tokenId) external;\r\n\r\n    /**\r\n     * @dev Destroys `tokenId`.\r\n     * The approval is cleared when the token is burned.\r\n     *\r\n     * Requirements:\r\n     *\r\n     * - `tokenId` must exist.\r\n     *\r\n     * Emits a {Transfer} event.\r\n     */\r\n    function burn(uint256 tokenId) external;\r\n}\r\n\r\ncontract RarinonAuction {\r\n    struct Round{\r\n        uint256 tokenId;\r\n        uint256 end_at;\r\n        bool closed;\r\n        address[] bidders;\r\n        uint256[] bids;\r\n    }\r\n\r\n    IERC721 _nft;  // Base NFT token for DAO voting.\r\n    uint256 _round_sec; // Round length in seconds.\r\n\r\n    Round[] history;\r\n\r\n    constructor(address nft) {\r\n        _nft = IERC721(nft);\r\n    }\r\n\r\n    function createRound(uint256 tokenId) public {\r\n        require(history.length == 0 || history[history.length - 1].closed, \"Auction in progress\");\r\n\r\n        address[] memory bidders;\r\n        uint256[] memory bids;\r\n        Round memory round = Round(tokenId, block.timestamp + _round_sec, false, bidders, bids);\r\n        history.push(round);\r\n    }\r\n\r\n    function createBid() payable public {\r\n        Round storage round = history[history.length - 1];\r\n        uint256 currentBid = round.bids.length > 0 ? round.bids[round.bids.length - 1] : 0;\r\n        uint256 nextBid = currentBid * 13 / 10;\r\n        require(msg.value > nextBid, \"Bid is too low.\");\r\n        \r\n        round.bidders.push(msg.sender);\r\n        round.bids.push(msg.value);\r\n\r\n        // If there was another bidder, send him back his bid.\r\n        if (round.bidders.length > 2){\r\n            uint256 index = round.bids.length;\r\n            payable(round.bidders[index - 2]).transfer(round.bids[index - 2]);\r\n        }\r\n    }\r\n\r\n    function canClose() public view returns (bool){\r\n        Round memory round = history[history.length - 1];\r\n\r\n        return !round.closed && block.timestamp >= round.end_at;        \r\n    }\r\n\r\n    function close() public {\r\n        require(canClose(), \"Can not close auction now.\");\r\n        Round memory round = history[history.length - 1];\r\n\r\n        round.closed = true;\r\n\r\n        // Has winner. Transfer token him.\r\n        if (round.bidders.length > 0){\r\n            _nft.safeTransferFrom(address(this), round.bidders[round.bidders.length - 1], round.tokenId);\r\n        }\r\n        // No winners. Just burn token.\r\n        else\r\n        {\r\n            _nft.burn(round.tokenId);\r\n        }\r\n    }    \r\n\r\n    // @notice Will receive any eth sent to the contract\r\n    receive() external payable {}\r\n}\r\n",
  "sourcePath": "D:\\dev\\bia\\git\\nft-dao\\contracts\\RarinonAuction.sol",
  "compiler": {
    "name": "solc",
    "version": "0.8.10+commit.fc410830.Emscripten.clang"
  },
  "schemaVersion": "3.4.3",
  "updatedAt": "2021-12-07T06:04:31.394Z",
  "devdoc": {
    "kind": "dev",
    "methods": {},
    "version": 1
  },
  "userdoc": {
    "kind": "user",
    "methods": {},
    "version": 1
  }
}