{
  "contractName": "RarinonDAO",
  "abi": [
    {
      "inputs": [
        {
          "internalType": "address",
          "name": "nft",
          "type": "address"
        },
        {
          "internalType": "uint256",
          "name": "round_sec",
          "type": "uint256"
        },
        {
          "internalType": "uint32",
          "name": "quorum",
          "type": "uint32"
        }
      ],
      "stateMutability": "nonpayable",
      "type": "constructor"
    },
    {
      "stateMutability": "payable",
      "type": "receive"
    },
    {
      "inputs": [],
      "name": "historyCount",
      "outputs": [
        {
          "internalType": "uint256",
          "name": "",
          "type": "uint256"
        }
      ],
      "stateMutability": "view",
      "type": "function"
    },
    {
      "inputs": [
        {
          "internalType": "uint256",
          "name": "index",
          "type": "uint256"
        }
      ],
      "name": "history",
      "outputs": [
        {
          "components": [
            {
              "internalType": "address",
              "name": "account",
              "type": "address"
            },
            {
              "internalType": "uint256",
              "name": "amount",
              "type": "uint256"
            },
            {
              "internalType": "string",
              "name": "title",
              "type": "string"
            },
            {
              "internalType": "string",
              "name": "url",
              "type": "string"
            },
            {
              "internalType": "address[]",
              "name": "voters",
              "type": "address[]"
            },
            {
              "internalType": "uint32",
              "name": "nyes",
              "type": "uint32"
            },
            {
              "internalType": "uint32",
              "name": "nno",
              "type": "uint32"
            },
            {
              "internalType": "uint256",
              "name": "end_at",
              "type": "uint256"
            },
            {
              "internalType": "bool",
              "name": "closed",
              "type": "bool"
            },
            {
              "internalType": "bool",
              "name": "approved",
              "type": "bool"
            }
          ],
          "internalType": "struct RarinonDAO.Proposal",
          "name": "",
          "type": "tuple"
        }
      ],
      "stateMutability": "view",
      "type": "function"
    },
    {
      "inputs": [
        {
          "internalType": "address",
          "name": "voter",
          "type": "address"
        },
        {
          "internalType": "uint256",
          "name": "vote_id",
          "type": "uint256"
        }
      ],
      "name": "didVote",
      "outputs": [
        {
          "internalType": "bool",
          "name": "",
          "type": "bool"
        }
      ],
      "stateMutability": "view",
      "type": "function"
    },
    {
      "inputs": [
        {
          "internalType": "address",
          "name": "account",
          "type": "address"
        },
        {
          "internalType": "uint256",
          "name": "amount",
          "type": "uint256"
        },
        {
          "internalType": "string",
          "name": "title",
          "type": "string"
        },
        {
          "internalType": "string",
          "name": "url",
          "type": "string"
        }
      ],
      "name": "addProposal",
      "outputs": [],
      "stateMutability": "nonpayable",
      "type": "function"
    },
    {
      "inputs": [
        {
          "internalType": "uint256",
          "name": "vote_id",
          "type": "uint256"
        }
      ],
      "name": "voteYes",
      "outputs": [],
      "stateMutability": "nonpayable",
      "type": "function"
    },
    {
      "inputs": [
        {
          "internalType": "uint256",
          "name": "vote_id",
          "type": "uint256"
        }
      ],
      "name": "voteNo",
      "outputs": [],
      "stateMutability": "nonpayable",
      "type": "function"
    },
    {
      "inputs": [
        {
          "internalType": "uint256",
          "name": "vote_id",
          "type": "uint256"
        }
      ],
      "name": "canClose",
      "outputs": [
        {
          "internalType": "bool",
          "name": "",
          "type": "bool"
        }
      ],
      "stateMutability": "view",
      "type": "function"
    },
    {
      "inputs": [
        {
          "internalType": "uint256",
          "name": "vote_id",
          "type": "uint256"
        }
      ],
      "name": "close",
      "outputs": [],
      "stateMutability": "nonpayable",
      "type": "function"
    }
  ],
  "bytecode": "0x60806040523480156200001157600080fd5b50604051620022bf380380620022bf83398181016040528101906200003791906200018e565b826000806101000a81548173ffffffffffffffffffffffffffffffffffffffff021916908373ffffffffffffffffffffffffffffffffffffffff1602179055508160018190555080600260006101000a81548163ffffffff021916908363ffffffff160217905550505050620001ea565b600080fd5b600073ffffffffffffffffffffffffffffffffffffffff82169050919050565b6000620000da82620000ad565b9050919050565b620000ec81620000cd565b8114620000f857600080fd5b50565b6000815190506200010c81620000e1565b92915050565b6000819050919050565b620001278162000112565b81146200013357600080fd5b50565b60008151905062000147816200011c565b92915050565b600063ffffffff82169050919050565b62000168816200014d565b81146200017457600080fd5b50565b60008151905062000188816200015d565b92915050565b600080600060608486031215620001aa57620001a9620000a8565b5b6000620001ba86828701620000fb565b9350506020620001cd8682870162000136565b9250506040620001e08682870162000177565b9150509250925092565b6120c580620001fa6000396000f3fe60806040526004361061007f5760003560e01c80636a1cf7211161004e5780636a1cf7211461013157806376740b5b1461015a578063a7a38f0b14610197578063bda088d4146101d457610086565b80630aebeb4e1461008b5780630e44c762146100b45780631a6f7be5146100dd5780633a9c9ffc1461010657610086565b3661008657005b600080fd5b34801561009757600080fd5b506100b260048036038101906100ad9190611707565b610211565b005b3480156100c057600080fd5b506100db60048036038101906100d691906118d8565b610382565b005b3480156100e957600080fd5b5061010460048036038101906100ff9190611707565b61069d565b005b34801561011257600080fd5b5061011b610900565b6040516101289190611986565b60405180910390f35b34801561013d57600080fd5b5061015860048036038101906101539190611707565b61090d565b005b34801561016657600080fd5b50610181600480360381019061017c9190611707565b610b70565b60405161018e91906119bc565b60405180910390f35b3480156101a357600080fd5b506101be60048036038101906101b99190611707565b610ecc565b6040516101cb9190611c42565b60405180910390f35b3480156101e057600080fd5b506101fb60048036038101906101f69190611c64565b6111a7565b60405161020891906119bc565b60405180910390f35b61021a81610b70565b61022357600080fd5b60006003828154811061023957610238611ca4565b5b906000526020600020906008020190508060070160009054906101000a900460ff161561029b576040517f08c379a000000000000000000000000000000000000000000000000000000000815260040161029290611d30565b60405180910390fd5b60018160070160006101000a81548160ff021916908315150217905550600260009054906101000a900463ffffffff1663ffffffff168160050160009054906101000a900463ffffffff1663ffffffff161061037e5760018160070160016101000a81548160ff0219169083151502179055508060000160009054906101000a900473ffffffffffffffffffffffffffffffffffffffff1673ffffffffffffffffffffffffffffffffffffffff166108fc82600101549081150290604051600060405180830381858888f1935050505015801561037c573d6000803e3d6000fd5b505b5050565b60008060009054906101000a900473ffffffffffffffffffffffffffffffffffffffff1673ffffffffffffffffffffffffffffffffffffffff166370a08231336040518263ffffffff1660e01b81526004016103de9190611d5f565b602060405180830381865afa1580156103fb573d6000803e3d6000fd5b505050506040513d601f19601f8201168201806040525081019061041f9190611d8f565b1161045f576040517f08c379a000000000000000000000000000000000000000000000000000000000815260040161045690611e2e565b60405180910390fd5b824710156104a2576040517f08c379a000000000000000000000000000000000000000000000000000000000815260040161049990611e9a565b60405180910390fd5b606060006040518061014001604052808773ffffffffffffffffffffffffffffffffffffffff168152602001868152602001858152602001848152602001838152602001600063ffffffff168152602001600063ffffffff1681526020016001544261050e9190611ee9565b8152602001600015158152602001600015158152509050600381908060018154018082558091505060019003906000526020600020906008020160009091909190915060008201518160000160006101000a81548173ffffffffffffffffffffffffffffffffffffffff021916908373ffffffffffffffffffffffffffffffffffffffff1602179055506020820151816001015560408201518160020190805190602001906105be929190611517565b5060608201518160030190805190602001906105db929190611517565b5060808201518160040190805190602001906105f892919061159d565b5060a08201518160050160006101000a81548163ffffffff021916908363ffffffff16021790555060c08201518160050160046101000a81548163ffffffff021916908363ffffffff16021790555060e082015181600601556101008201518160070160006101000a81548160ff0219169083151502179055506101208201518160070160016101000a81548160ff0219169083151502179055505050505050505050565b60008060009054906101000a900473ffffffffffffffffffffffffffffffffffffffff1673ffffffffffffffffffffffffffffffffffffffff166370a08231336040518263ffffffff1660e01b81526004016106f99190611d5f565b602060405180830381865afa158015610716573d6000803e3d6000fd5b505050506040513d601f19601f8201168201806040525081019061073a9190611d8f565b1161077a576040517f08c379a000000000000000000000000000000000000000000000000000000000815260040161077190611e2e565b60405180910390fd5b61078433826111a7565b156107c4576040517f08c379a00000000000000000000000000000000000000000000000000000000081526004016107bb90611f8b565b60405180910390fd5b6000600382815481106107da576107d9611ca4565b5b906000526020600020906008020190508060070160009054906101000a900460ff161561083c576040517f08c379a000000000000000000000000000000000000000000000000000000000815260040161083390611d30565b60405180910390fd5b60018160050160049054906101000a900463ffffffff1661085d9190611fab565b8160050160006101000a81548163ffffffff021916908363ffffffff16021790555080600401339080600181540180825580915050600190039060005260206000200160009091909190916101000a81548173ffffffffffffffffffffffffffffffffffffffff021916908373ffffffffffffffffffffffffffffffffffffffff1602179055506108ed82610b70565b156108fc576108fb82610211565b5b5050565b6000600380549050905090565b60008060009054906101000a900473ffffffffffffffffffffffffffffffffffffffff1673ffffffffffffffffffffffffffffffffffffffff166370a08231336040518263ffffffff1660e01b81526004016109699190611d5f565b602060405180830381865afa158015610986573d6000803e3d6000fd5b505050506040513d601f19601f820116820180604052508101906109aa9190611d8f565b116109ea576040517f08c379a00000000000000000000000000000000000000000000000000000000081526004016109e190611e2e565b60405180910390fd5b6109f433826111a7565b15610a34576040517f08c379a0000000000000000000000000000000000000000000000000000000008152600401610a2b90611f8b565b60405180910390fd5b600060038281548110610a4a57610a49611ca4565b5b906000526020600020906008020190508060070160009054906101000a900460ff1615610aac576040517f08c379a0000000000000000000000000000000000000000000000000000000008152600401610aa390611d30565b60405180910390fd5b60018160050160009054906101000a900463ffffffff16610acd9190611fab565b8160050160006101000a81548163ffffffff021916908363ffffffff16021790555080600401339080600181540180825580915050600190039060005260206000200160009091909190916101000a81548173ffffffffffffffffffffffffffffffffffffffff021916908373ffffffffffffffffffffffffffffffffffffffff160217905550610b5d82610b70565b15610b6c57610b6b82610211565b5b5050565b60006003805490508210610b8357600080fd5b600060038381548110610b9957610b98611ca4565b5b9060005260206000209060080201604051806101400160405290816000820160009054906101000a900473ffffffffffffffffffffffffffffffffffffffff1673ffffffffffffffffffffffffffffffffffffffff1673ffffffffffffffffffffffffffffffffffffffff16815260200160018201548152602001600282018054610c2390612014565b80601f0160208091040260200160405190810160405280929190818152602001828054610c4f90612014565b8015610c9c5780601f10610c7157610100808354040283529160200191610c9c565b820191906000526020600020905b815481529060010190602001808311610c7f57829003601f168201915b50505050508152602001600382018054610cb590612014565b80601f0160208091040260200160405190810160405280929190818152602001828054610ce190612014565b8015610d2e5780601f10610d0357610100808354040283529160200191610d2e565b820191906000526020600020905b815481529060010190602001808311610d1157829003601f168201915b5050505050815260200160048201805480602002602001604051908101604052809291908181526020018280548015610dbc57602002820191906000526020600020905b8160009054906101000a900473ffffffffffffffffffffffffffffffffffffffff1673ffffffffffffffffffffffffffffffffffffffff1681526020019060010190808311610d72575b505050505081526020016005820160009054906101000a900463ffffffff1663ffffffff1663ffffffff1681526020016005820160049054906101000a900463ffffffff1663ffffffff1663ffffffff168152602001600682015481526020016007820160009054906101000a900460ff161515151581526020016007820160019054906101000a900460ff1615151515815250509050806101000151158015610ec45750600260009054906101000a900463ffffffff1663ffffffff168160a0015163ffffffff16101580610eb45750600260009054906101000a900463ffffffff1663ffffffff168160c0015163ffffffff1610155b80610ec357508060e001514210155b5b915050919050565b610ed4611627565b60038281548110610ee857610ee7611ca4565b5b9060005260206000209060080201604051806101400160405290816000820160009054906101000a900473ffffffffffffffffffffffffffffffffffffffff1673ffffffffffffffffffffffffffffffffffffffff1673ffffffffffffffffffffffffffffffffffffffff16815260200160018201548152602001600282018054610f7290612014565b80601f0160208091040260200160405190810160405280929190818152602001828054610f9e90612014565b8015610feb5780601f10610fc057610100808354040283529160200191610feb565b820191906000526020600020905b815481529060010190602001808311610fce57829003601f168201915b5050505050815260200160038201805461100490612014565b80601f016020809104026020016040519081016040528092919081815260200182805461103090612014565b801561107d5780601f106110525761010080835404028352916020019161107d565b820191906000526020600020905b81548152906001019060200180831161106057829003601f168201915b505050505081526020016004820180548060200260200160405190810160405280929190818152602001828054801561110b57602002820191906000526020600020905b8160009054906101000a900473ffffffffffffffffffffffffffffffffffffffff1673ffffffffffffffffffffffffffffffffffffffff16815260200190600101908083116110c1575b505050505081526020016005820160009054906101000a900463ffffffff1663ffffffff1663ffffffff1681526020016005820160049054906101000a900463ffffffff1663ffffffff1663ffffffff168152602001600682015481526020016007820160009054906101000a900460ff161515151581526020016007820160019054906101000a900460ff1615151515815250509050919050565b600060038054905082106111ba57600080fd5b6000600383815481106111d0576111cf611ca4565b5b9060005260206000209060080201604051806101400160405290816000820160009054906101000a900473ffffffffffffffffffffffffffffffffffffffff1673ffffffffffffffffffffffffffffffffffffffff1673ffffffffffffffffffffffffffffffffffffffff1681526020016001820154815260200160028201805461125a90612014565b80601f016020809104026020016040519081016040528092919081815260200182805461128690612014565b80156112d35780601f106112a8576101008083540402835291602001916112d3565b820191906000526020600020905b8154815290600101906020018083116112b657829003601f168201915b505050505081526020016003820180546112ec90612014565b80601f016020809104026020016040519081016040528092919081815260200182805461131890612014565b80156113655780601f1061133a57610100808354040283529160200191611365565b820191906000526020600020905b81548152906001019060200180831161134857829003601f168201915b50505050508152602001600482018054806020026020016040519081016040528092919081815260200182805480156113f357602002820191906000526020600020905b8160009054906101000a900473ffffffffffffffffffffffffffffffffffffffff1673ffffffffffffffffffffffffffffffffffffffff16815260200190600101908083116113a9575b505050505081526020016005820160009054906101000a900463ffffffff1663ffffffff1663ffffffff1681526020016005820160049054906101000a900463ffffffff1663ffffffff1663ffffffff168152602001600682015481526020016007820160009054906101000a900460ff161515151581526020016007820160019054906101000a900460ff161515151581525050905060005b81608001515181101561150a578473ffffffffffffffffffffffffffffffffffffffff16826080015182815181106114c8576114c7611ca4565b5b602002602001015173ffffffffffffffffffffffffffffffffffffffff1614156114f757600192505050611511565b808061150290612046565b91505061148d565b5060009150505b92915050565b82805461152390612014565b90600052602060002090601f016020900481019282611545576000855561158c565b82601f1061155e57805160ff191683800117855561158c565b8280016001018555821561158c579182015b8281111561158b578251825591602001919060010190611570565b5b50905061159991906116a0565b5090565b828054828255906000526020600020908101928215611616579160200282015b828111156116155782518260006101000a81548173ffffffffffffffffffffffffffffffffffffffff021916908373ffffffffffffffffffffffffffffffffffffffff160217905550916020019190600101906115bd565b5b50905061162391906116a0565b5090565b604051806101400160405280600073ffffffffffffffffffffffffffffffffffffffff16815260200160008152602001606081526020016060815260200160608152602001600063ffffffff168152602001600063ffffffff168152602001600081526020016000151581526020016000151581525090565b5b808211156116b95760008160009055506001016116a1565b5090565b6000604051905090565b600080fd5b600080fd5b6000819050919050565b6116e4816116d1565b81146116ef57600080fd5b50565b600081359050611701816116db565b92915050565b60006020828403121561171d5761171c6116c7565b5b600061172b848285016116f2565b91505092915050565b600073ffffffffffffffffffffffffffffffffffffffff82169050919050565b600061175f82611734565b9050919050565b61176f81611754565b811461177a57600080fd5b50565b60008135905061178c81611766565b92915050565b600080fd5b600080fd5b6000601f19601f8301169050919050565b7f4e487b7100000000000000000000000000000000000000000000000000000000600052604160045260246000fd5b6117e58261179c565b810181811067ffffffffffffffff82111715611804576118036117ad565b5b80604052505050565b60006118176116bd565b905061182382826117dc565b919050565b600067ffffffffffffffff821115611843576118426117ad565b5b61184c8261179c565b9050602081019050919050565b82818337600083830152505050565b600061187b61187684611828565b61180d565b90508281526020810184848401111561189757611896611797565b5b6118a2848285611859565b509392505050565b600082601f8301126118bf576118be611792565b5b81356118cf848260208601611868565b91505092915050565b600080600080608085870312156118f2576118f16116c7565b5b60006119008782880161177d565b9450506020611911878288016116f2565b935050604085013567ffffffffffffffff811115611932576119316116cc565b5b61193e878288016118aa565b925050606085013567ffffffffffffffff81111561195f5761195e6116cc565b5b61196b878288016118aa565b91505092959194509250565b611980816116d1565b82525050565b600060208201905061199b6000830184611977565b92915050565b60008115159050919050565b6119b6816119a1565b82525050565b60006020820190506119d160008301846119ad565b92915050565b6119e081611754565b82525050565b6119ef816116d1565b82525050565b600081519050919050565b600082825260208201905092915050565b60005b83811015611a2f578082015181840152602081019050611a14565b83811115611a3e576000848401525b50505050565b6000611a4f826119f5565b611a598185611a00565b9350611a69818560208601611a11565b611a728161179c565b840191505092915050565b600081519050919050565b600082825260208201905092915050565b6000819050602082019050919050565b6000611ab583836119d7565b60208301905092915050565b6000602082019050919050565b6000611ad982611a7d565b611ae38185611a88565b9350611aee83611a99565b8060005b83811015611b1f578151611b068882611aa9565b9750611b1183611ac1565b925050600181019050611af2565b5085935050505092915050565b600063ffffffff82169050919050565b611b4581611b2c565b82525050565b611b54816119a1565b82525050565b600061014083016000830151611b7360008601826119d7565b506020830151611b8660208601826119e6565b5060408301518482036040860152611b9e8282611a44565b91505060608301518482036060860152611bb88282611a44565b91505060808301518482036080860152611bd28282611ace565b91505060a0830151611be760a0860182611b3c565b5060c0830151611bfa60c0860182611b3c565b5060e0830151611c0d60e08601826119e6565b50610100830151611c22610100860182611b4b565b50610120830151611c37610120860182611b4b565b508091505092915050565b60006020820190508181036000830152611c5c8184611b5a565b905092915050565b60008060408385031215611c7b57611c7a6116c7565b5b6000611c898582860161177d565b9250506020611c9a858286016116f2565b9150509250929050565b7f4e487b7100000000000000000000000000000000000000000000000000000000600052603260045260246000fd5b600082825260208201905092915050565b7f416c726561647920636c6f736564000000000000000000000000000000000000600082015250565b6000611d1a600e83611cd3565b9150611d2582611ce4565b602082019050919050565b60006020820190508181036000830152611d4981611d0d565b9050919050565b611d5981611754565b82525050565b6000602082019050611d746000830184611d50565b92915050565b600081519050611d89816116db565b92915050565b600060208284031215611da557611da46116c7565b5b6000611db384828501611d7a565b91505092915050565b7f596f75206e656564206174206c656173742031204e465420666f72206163746960008201527f6f6e732e00000000000000000000000000000000000000000000000000000000602082015250565b6000611e18602483611cd3565b9150611e2382611dbc565b604082019050919050565b60006020820190508181036000830152611e4781611e0b565b9050919050565b7f4e6f742073756666696369656e742066756e6473000000000000000000000000600082015250565b6000611e84601483611cd3565b9150611e8f82611e4e565b602082019050919050565b60006020820190508181036000830152611eb381611e77565b9050919050565b7f4e487b7100000000000000000000000000000000000000000000000000000000600052601160045260246000fd5b6000611ef4826116d1565b9150611eff836116d1565b9250827fffffffffffffffffffffffffffffffffffffffffffffffffffffffffffffffff03821115611f3457611f33611eba565b5b828201905092915050565b7f416c726561647920766f74656400000000000000000000000000000000000000600082015250565b6000611f75600d83611cd3565b9150611f8082611f3f565b602082019050919050565b60006020820190508181036000830152611fa481611f68565b9050919050565b6000611fb682611b2c565b9150611fc183611b2c565b92508263ffffffff03821115611fda57611fd9611eba565b5b828201905092915050565b7f4e487b7100000000000000000000000000000000000000000000000000000000600052602260045260246000fd5b6000600282049050600182168061202c57607f821691505b602082108114156120405761203f611fe5565b5b50919050565b6000612051826116d1565b91507fffffffffffffffffffffffffffffffffffffffffffffffffffffffffffffffff82141561208457612083611eba565b5b60018201905091905056fea264697066735822122031b5ae047621000e73c5896b8fde52af6c1069e538531b6dbdf12e9e621d051464736f6c634300080a0033",
  "immutableReferences": {},
  "source": "// SPDX-License-Identifier: MIT\r\npragma solidity 0.8.10;\r\n\r\n//         .\r\n//    NFT .\r\n\r\ninterface IERC721 {\r\n    /**\r\n     * @dev Returns the number of tokens in ``owner``'s account.\r\n     */\r\n    function balanceOf(address owner) external view returns (uint256 balance);\r\n}\r\n\r\ncontract RarinonDAO {\r\n    IERC721 _nft;  // Base NFT token for DAO voting.\r\n    uint256 _round_sec; // ROund length in seconds.\r\n    uint32 _quorum; // How many votes nedded to accept or reject voting.\r\n\r\n    struct Proposal{\r\n        address account;\r\n        uint256 amount;\r\n        string title;\r\n        string url;\r\n        address[] voters;\r\n        uint32 nyes;\r\n        uint32 nno;\r\n        uint256 end_at;\r\n        bool closed;\r\n        bool approved;\r\n    }\r\n\r\n    Proposal[] _history;\r\n\r\n    function historyCount() public view returns (uint256){\r\n        return _history.length;\r\n    }\r\n\r\n    function history(uint256 index) public view returns (Proposal memory){\r\n        return _history[index];\r\n    }\r\n\r\n    constructor(address nft, uint256 round_sec, uint32 quorum) {\r\n        _nft = IERC721(nft);\r\n        _round_sec = round_sec;\r\n        _quorum = quorum;\r\n    }\r\n\r\n    modifier onlyMember() {        \r\n        require(_nft.balanceOf(msg.sender) > 0, \"You need at least 1 NFT for actions.\");\r\n        _;\r\n    }\r\n\r\n    function didVote(address voter, uint256 vote_id) public view returns (bool) {\r\n        require(vote_id < _history.length);\r\n        Proposal memory proposal = _history[vote_id];\r\n        for (uint256 i = 0; i < proposal.voters.length; i++){\r\n            if (proposal.voters[i] == voter) return true;\r\n        }\r\n        return false;\r\n    }\r\n\r\n    //  .\r\n    function addProposal(address account, uint256 amount, string memory title, string memory url) onlyMember public {\r\n        require(address(this).balance >= amount, \"Not sufficient funds\");\r\n\r\n        address[] memory dump;\r\n        Proposal memory proposal = Proposal(account, amount, title, url, dump, 0, 0, block.timestamp + _round_sec, false, false);\r\n        _history.push(proposal);\r\n    }\r\n\r\n    //\r\n    function voteYes(uint256 vote_id) onlyMember public {\r\n        require(!didVote(msg.sender, vote_id), \"Already voted\");\r\n\r\n        Proposal storage proposal = _history[vote_id];\r\n        require(!proposal.closed, \"Already closed\");\r\n\r\n        proposal.nyes = proposal.nyes + 1;\r\n        proposal.voters.push(msg.sender);\r\n\r\n        if (canClose(vote_id)) close(vote_id);\r\n    }\r\n\r\n    function voteNo(uint256 vote_id) onlyMember public {\r\n        require(!didVote(msg.sender, vote_id), \"Already voted\");\r\n\r\n        Proposal storage proposal = _history[vote_id];\r\n        require(!proposal.closed, \"Already closed\");\r\n\r\n        proposal.nyes = proposal.nno + 1;\r\n        proposal.voters.push(msg.sender);\r\n\r\n        if (canClose(vote_id)) close(vote_id);\r\n    }\r\n\r\n    function canClose(uint256 vote_id) public view returns (bool){\r\n        require(vote_id < _history.length);\r\n        Proposal memory proposal = _history[vote_id];\r\n\r\n        return !proposal.closed && (proposal.nyes >= _quorum || proposal.nno >= _quorum || block.timestamp >= proposal.end_at);\r\n    }\r\n\r\n    function close(uint256 vote_id) public {\r\n        require(canClose(vote_id));\r\n        \r\n        Proposal storage proposal = _history[vote_id];\r\n        require(!proposal.closed, \"Already closed\");\r\n\r\n        proposal.closed = true;\r\n\r\n        // Quorum agreed proposal. Transfer money.\r\n        if (proposal.nyes >= _quorum){\r\n            proposal.approved = true;\r\n            payable(proposal.account).transfer(proposal.amount);\r\n        }\r\n    }\r\n\r\n    // @notice Will receive any eth sent to the contract\r\n    receive() external payable {}\r\n}\r\n",
  "sourcePath": "D:\\dev\\bia\\git\\nft-dao\\truffle\\contracts\\RarinonDAO.sol",
  "compiler": {
    "name": "solc",
    "version": "0.8.10+commit.fc410830.Emscripten.clang"
  },
  "schemaVersion": "3.4.3",
  "updatedAt": "2021-12-09T13:11:10.120Z",
  "devdoc": {
    "kind": "dev",
    "methods": {},
    "version": 1
  },
  "userdoc": {
    "kind": "user",
    "methods": {},
    "version": 1
  }
}