{
  "contractName": "RarinonDAO",
  "abi": [
    {
      "inputs": [
        {
          "internalType": "address",
          "name": "nft",
          "type": "address"
        },
        {
          "internalType": "uint256",
          "name": "round_sec",
          "type": "uint256"
        },
        {
          "internalType": "uint8",
          "name": "quorum",
          "type": "uint8"
        }
      ],
      "stateMutability": "nonpayable",
      "type": "constructor"
    },
    {
      "inputs": [
        {
          "internalType": "uint256",
          "name": "",
          "type": "uint256"
        }
      ],
      "name": "history",
      "outputs": [
        {
          "internalType": "address",
          "name": "recepinet",
          "type": "address"
        },
        {
          "internalType": "uint256",
          "name": "amount",
          "type": "uint256"
        },
        {
          "internalType": "string",
          "name": "title",
          "type": "string"
        },
        {
          "internalType": "string",
          "name": "url",
          "type": "string"
        },
        {
          "internalType": "uint32",
          "name": "nyes",
          "type": "uint32"
        },
        {
          "internalType": "uint32",
          "name": "nno",
          "type": "uint32"
        },
        {
          "internalType": "uint256",
          "name": "end_at",
          "type": "uint256"
        },
        {
          "internalType": "bool",
          "name": "closed",
          "type": "bool"
        }
      ],
      "stateMutability": "view",
      "type": "function"
    },
    {
      "stateMutability": "payable",
      "type": "receive"
    },
    {
      "inputs": [
        {
          "internalType": "address",
          "name": "voter",
          "type": "address"
        },
        {
          "internalType": "uint256",
          "name": "vote_id",
          "type": "uint256"
        }
      ],
      "name": "didVote",
      "outputs": [
        {
          "internalType": "bool",
          "name": "",
          "type": "bool"
        }
      ],
      "stateMutability": "view",
      "type": "function"
    },
    {
      "inputs": [
        {
          "internalType": "address",
          "name": "recepinet",
          "type": "address"
        },
        {
          "internalType": "uint256",
          "name": "amount",
          "type": "uint256"
        },
        {
          "internalType": "string",
          "name": "title",
          "type": "string"
        },
        {
          "internalType": "string",
          "name": "url",
          "type": "string"
        }
      ],
      "name": "addProposal",
      "outputs": [],
      "stateMutability": "nonpayable",
      "type": "function"
    },
    {
      "inputs": [
        {
          "internalType": "uint256",
          "name": "vote_id",
          "type": "uint256"
        }
      ],
      "name": "voteYes",
      "outputs": [],
      "stateMutability": "nonpayable",
      "type": "function"
    },
    {
      "inputs": [
        {
          "internalType": "uint256",
          "name": "vote_id",
          "type": "uint256"
        }
      ],
      "name": "voteNo",
      "outputs": [],
      "stateMutability": "nonpayable",
      "type": "function"
    },
    {
      "inputs": [
        {
          "internalType": "uint256",
          "name": "vote_id",
          "type": "uint256"
        }
      ],
      "name": "canClose",
      "outputs": [
        {
          "internalType": "bool",
          "name": "",
          "type": "bool"
        }
      ],
      "stateMutability": "view",
      "type": "function"
    },
    {
      "inputs": [
        {
          "internalType": "uint256",
          "name": "vote_id",
          "type": "uint256"
        }
      ],
      "name": "close",
      "outputs": [],
      "stateMutability": "nonpayable",
      "type": "function"
    }
  ],
  "bytecode": "0x60806040523480156200001157600080fd5b5060405162001fb638038062001fb683398181016040528101906200003791906200018e565b826000806101000a81548173ffffffffffffffffffffffffffffffffffffffff021916908373ffffffffffffffffffffffffffffffffffffffff160217905550816001819055508060ff16600260006101000a81548163ffffffff021916908363ffffffff160217905550505050620001ea565b600080fd5b600073ffffffffffffffffffffffffffffffffffffffff82169050919050565b6000620000dd82620000b0565b9050919050565b620000ef81620000d0565b8114620000fb57600080fd5b50565b6000815190506200010f81620000e4565b92915050565b6000819050919050565b6200012a8162000115565b81146200013657600080fd5b50565b6000815190506200014a816200011f565b92915050565b600060ff82169050919050565b620001688162000150565b81146200017457600080fd5b50565b60008151905062000188816200015d565b92915050565b600080600060608486031215620001aa57620001a9620000ab565b5b6000620001ba86828701620000fe565b9350506020620001cd8682870162000139565b9250506040620001e08682870162000177565b9150509250925092565b611dbc80620001fa6000396000f3fe6080604052600436106100745760003560e01c80636a1cf7211161004e5780636a1cf721146100fb57806376740b5b14610124578063a7a38f0b14610161578063bda088d4146101a55761007b565b80630aebeb4e146100805780630e44c762146100a95780631a6f7be5146100d25761007b565b3661007b57005b600080fd5b34801561008c57600080fd5b506100a760048036038101906100a291906115be565b6101e2565b005b3480156100b557600080fd5b506100d060048036038101906100cb919061178f565b61057e565b005b3480156100de57600080fd5b506100f960048036038101906100f491906115be565b61086f565b005b34801561010757600080fd5b50610122600480360381019061011d91906115be565b610a3d565b005b34801561013057600080fd5b5061014b600480360381019061014691906115be565b610c0b565b6040516101589190611849565b60405180910390f35b34801561016d57600080fd5b50610188600480360381019061018391906115be565b610f3d565b60405161019c989796959493929190611929565b60405180910390f35b3480156101b157600080fd5b506101cc60048036038101906101c791906119b5565b6110f2565b6040516101d99190611849565b60405180910390f35b6101eb81610c0b565b6101f457600080fd5b60006003828154811061020a576102096119f5565b5b9060005260206000209060080201604051806101200160405290816000820160009054906101000a900473ffffffffffffffffffffffffffffffffffffffff1673ffffffffffffffffffffffffffffffffffffffff1673ffffffffffffffffffffffffffffffffffffffff1681526020016001820154815260200160028201805461029490611a53565b80601f01602080910402602001604051908101604052809291908181526020018280546102c090611a53565b801561030d5780601f106102e25761010080835404028352916020019161030d565b820191906000526020600020905b8154815290600101906020018083116102f057829003601f168201915b5050505050815260200160038201805461032690611a53565b80601f016020809104026020016040519081016040528092919081815260200182805461035290611a53565b801561039f5780601f106103745761010080835404028352916020019161039f565b820191906000526020600020905b81548152906001019060200180831161038257829003601f168201915b505050505081526020016004820180548060200260200160405190810160405280929190818152602001828054801561042d57602002820191906000526020600020905b8160009054906101000a900473ffffffffffffffffffffffffffffffffffffffff1673ffffffffffffffffffffffffffffffffffffffff16815260200190600101908083116103e3575b505050505081526020016005820160009054906101000a900463ffffffff1663ffffffff1663ffffffff1681526020016005820160049054906101000a900463ffffffff1663ffffffff1663ffffffff168152602001600682015481526020016007820160009054906101000a900460ff1615151515815250509050806101000151156104ef576040517f08c379a00000000000000000000000000000000000000000000000000000000081526004016104e690611ad1565b60405180910390fd5b600181610100019015159081151581525050600260009054906101000a900463ffffffff1663ffffffff168160a0015163ffffffff161061057a57806000015173ffffffffffffffffffffffffffffffffffffffff166108fc82602001519081150290604051600060405180830381858888f19350505050158015610578573d6000803e3d6000fd5b505b5050565b60008060009054906101000a900473ffffffffffffffffffffffffffffffffffffffff1673ffffffffffffffffffffffffffffffffffffffff166370a08231336040518263ffffffff1660e01b81526004016105da9190611af1565b602060405180830381865afa1580156105f7573d6000803e3d6000fd5b505050506040513d601f19601f8201168201806040525081019061061b9190611b21565b1161065b576040517f08c379a000000000000000000000000000000000000000000000000000000000815260040161065290611bc0565b60405180910390fd5b8247101561069e576040517f08c379a000000000000000000000000000000000000000000000000000000000815260040161069590611c2c565b60405180910390fd5b606060006040518061012001604052808773ffffffffffffffffffffffffffffffffffffffff168152602001868152602001858152602001848152602001838152602001600063ffffffff168152602001600063ffffffff1681526020016001544261070a9190611c7b565b8152602001600015158152509050600381908060018154018082558091505060019003906000526020600020906008020160009091909190915060008201518160000160006101000a81548173ffffffffffffffffffffffffffffffffffffffff021916908373ffffffffffffffffffffffffffffffffffffffff1602179055506020820151816001015560408201518160020190805190602001906107b1929190611447565b5060608201518160030190805190602001906107ce929190611447565b5060808201518160040190805190602001906107eb9291906114cd565b5060a08201518160050160006101000a81548163ffffffff021916908363ffffffff16021790555060c08201518160050160046101000a81548163ffffffff021916908363ffffffff16021790555060e082015181600601556101008201518160070160006101000a81548160ff0219169083151502179055505050505050505050565b60008060009054906101000a900473ffffffffffffffffffffffffffffffffffffffff1673ffffffffffffffffffffffffffffffffffffffff166370a08231336040518263ffffffff1660e01b81526004016108cb9190611af1565b602060405180830381865afa1580156108e8573d6000803e3d6000fd5b505050506040513d601f19601f8201168201806040525081019061090c9190611b21565b1161094c576040517f08c379a000000000000000000000000000000000000000000000000000000000815260040161094390611bc0565b60405180910390fd5b61095633826110f2565b15610996576040517f08c379a000000000000000000000000000000000000000000000000000000000815260040161098d90611d1d565b60405180910390fd5b6000600382815481106109ac576109ab6119f5565b5b9060005260206000209060080201905080600401339080600181540180825580915050600190039060005260206000200160009091909190916101000a81548173ffffffffffffffffffffffffffffffffffffffff021916908373ffffffffffffffffffffffffffffffffffffffff160217905550610a2a82610c0b565b15610a3957610a38826101e2565b5b5050565b60008060009054906101000a900473ffffffffffffffffffffffffffffffffffffffff1673ffffffffffffffffffffffffffffffffffffffff166370a08231336040518263ffffffff1660e01b8152600401610a999190611af1565b602060405180830381865afa158015610ab6573d6000803e3d6000fd5b505050506040513d601f19601f82011682018060405250810190610ada9190611b21565b11610b1a576040517f08c379a0000000000000000000000000000000000000000000000000000000008152600401610b1190611bc0565b60405180910390fd5b610b2433826110f2565b15610b64576040517f08c379a0000000000000000000000000000000000000000000000000000000008152600401610b5b90611d1d565b60405180910390fd5b600060038281548110610b7a57610b796119f5565b5b9060005260206000209060080201905080600401339080600181540180825580915050600190039060005260206000200160009091909190916101000a81548173ffffffffffffffffffffffffffffffffffffffff021916908373ffffffffffffffffffffffffffffffffffffffff160217905550610bf882610c0b565b15610c0757610c06826101e2565b5b5050565b60006003805490508210610c1e57600080fd5b600060038381548110610c3457610c336119f5565b5b9060005260206000209060080201604051806101200160405290816000820160009054906101000a900473ffffffffffffffffffffffffffffffffffffffff1673ffffffffffffffffffffffffffffffffffffffff1673ffffffffffffffffffffffffffffffffffffffff16815260200160018201548152602001600282018054610cbe90611a53565b80601f0160208091040260200160405190810160405280929190818152602001828054610cea90611a53565b8015610d375780601f10610d0c57610100808354040283529160200191610d37565b820191906000526020600020905b815481529060010190602001808311610d1a57829003601f168201915b50505050508152602001600382018054610d5090611a53565b80601f0160208091040260200160405190810160405280929190818152602001828054610d7c90611a53565b8015610dc95780601f10610d9e57610100808354040283529160200191610dc9565b820191906000526020600020905b815481529060010190602001808311610dac57829003601f168201915b5050505050815260200160048201805480602002602001604051908101604052809291908181526020018280548015610e5757602002820191906000526020600020905b8160009054906101000a900473ffffffffffffffffffffffffffffffffffffffff1673ffffffffffffffffffffffffffffffffffffffff1681526020019060010190808311610e0d575b505050505081526020016005820160009054906101000a900463ffffffff1663ffffffff1663ffffffff1681526020016005820160049054906101000a900463ffffffff1663ffffffff1663ffffffff168152602001600682015481526020016007820160009054906101000a900460ff1615151515815250509050600260009054906101000a900463ffffffff1663ffffffff168160a0015163ffffffff16101580610f265750600260009054906101000a900463ffffffff1663ffffffff168160c0015163ffffffff1610155b80610f3557508060e001514210155b915050919050565b60038181548110610f4d57600080fd5b90600052602060002090600802016000915090508060000160009054906101000a900473ffffffffffffffffffffffffffffffffffffffff1690806001015490806002018054610f9c90611a53565b80601f0160208091040260200160405190810160405280929190818152602001828054610fc890611a53565b80156110155780601f10610fea57610100808354040283529160200191611015565b820191906000526020600020905b815481529060010190602001808311610ff857829003601f168201915b50505050509080600301805461102a90611a53565b80601f016020809104026020016040519081016040528092919081815260200182805461105690611a53565b80156110a35780601f10611078576101008083540402835291602001916110a3565b820191906000526020600020905b81548152906001019060200180831161108657829003601f168201915b5050505050908060050160009054906101000a900463ffffffff16908060050160049054906101000a900463ffffffff16908060060154908060070160009054906101000a900460ff16905088565b6000600380549050821061110557600080fd5b60006003838154811061111b5761111a6119f5565b5b9060005260206000209060080201604051806101200160405290816000820160009054906101000a900473ffffffffffffffffffffffffffffffffffffffff1673ffffffffffffffffffffffffffffffffffffffff1673ffffffffffffffffffffffffffffffffffffffff168152602001600182015481526020016002820180546111a590611a53565b80601f01602080910402602001604051908101604052809291908181526020018280546111d190611a53565b801561121e5780601f106111f35761010080835404028352916020019161121e565b820191906000526020600020905b81548152906001019060200180831161120157829003601f168201915b5050505050815260200160038201805461123790611a53565b80601f016020809104026020016040519081016040528092919081815260200182805461126390611a53565b80156112b05780601f10611285576101008083540402835291602001916112b0565b820191906000526020600020905b81548152906001019060200180831161129357829003601f168201915b505050505081526020016004820180548060200260200160405190810160405280929190818152602001828054801561133e57602002820191906000526020600020905b8160009054906101000a900473ffffffffffffffffffffffffffffffffffffffff1673ffffffffffffffffffffffffffffffffffffffff16815260200190600101908083116112f4575b505050505081526020016005820160009054906101000a900463ffffffff1663ffffffff1663ffffffff1681526020016005820160049054906101000a900463ffffffff1663ffffffff1663ffffffff168152602001600682015481526020016007820160009054906101000a900460ff161515151581525050905060005b81608001515181101561143a578473ffffffffffffffffffffffffffffffffffffffff16826080015182815181106113f8576113f76119f5565b5b602002602001015173ffffffffffffffffffffffffffffffffffffffff16141561142757600192505050611441565b808061143290611d3d565b9150506113bd565b5060009150505b92915050565b82805461145390611a53565b90600052602060002090601f01602090048101928261147557600085556114bc565b82601f1061148e57805160ff19168380011785556114bc565b828001600101855582156114bc579182015b828111156114bb5782518255916020019190600101906114a0565b5b5090506114c99190611557565b5090565b828054828255906000526020600020908101928215611546579160200282015b828111156115455782518260006101000a81548173ffffffffffffffffffffffffffffffffffffffff021916908373ffffffffffffffffffffffffffffffffffffffff160217905550916020019190600101906114ed565b5b5090506115539190611557565b5090565b5b80821115611570576000816000905550600101611558565b5090565b6000604051905090565b600080fd5b600080fd5b6000819050919050565b61159b81611588565b81146115a657600080fd5b50565b6000813590506115b881611592565b92915050565b6000602082840312156115d4576115d361157e565b5b60006115e2848285016115a9565b91505092915050565b600073ffffffffffffffffffffffffffffffffffffffff82169050919050565b6000611616826115eb565b9050919050565b6116268161160b565b811461163157600080fd5b50565b6000813590506116438161161d565b92915050565b600080fd5b600080fd5b6000601f19601f8301169050919050565b7f4e487b7100000000000000000000000000000000000000000000000000000000600052604160045260246000fd5b61169c82611653565b810181811067ffffffffffffffff821117156116bb576116ba611664565b5b80604052505050565b60006116ce611574565b90506116da8282611693565b919050565b600067ffffffffffffffff8211156116fa576116f9611664565b5b61170382611653565b9050602081019050919050565b82818337600083830152505050565b600061173261172d846116df565b6116c4565b90508281526020810184848401111561174e5761174d61164e565b5b611759848285611710565b509392505050565b600082601f83011261177657611775611649565b5b813561178684826020860161171f565b91505092915050565b600080600080608085870312156117a9576117a861157e565b5b60006117b787828801611634565b94505060206117c8878288016115a9565b935050604085013567ffffffffffffffff8111156117e9576117e8611583565b5b6117f587828801611761565b925050606085013567ffffffffffffffff81111561181657611815611583565b5b61182287828801611761565b91505092959194509250565b60008115159050919050565b6118438161182e565b82525050565b600060208201905061185e600083018461183a565b92915050565b61186d8161160b565b82525050565b61187c81611588565b82525050565b600081519050919050565b600082825260208201905092915050565b60005b838110156118bc5780820151818401526020810190506118a1565b838111156118cb576000848401525b50505050565b60006118dc82611882565b6118e6818561188d565b93506118f681856020860161189e565b6118ff81611653565b840191505092915050565b600063ffffffff82169050919050565b6119238161190a565b82525050565b60006101008201905061193f600083018b611864565b61194c602083018a611873565b818103604083015261195e81896118d1565b9050818103606083015261197281886118d1565b9050611981608083018761191a565b61198e60a083018661191a565b61199b60c0830185611873565b6119a860e083018461183a565b9998505050505050505050565b600080604083850312156119cc576119cb61157e565b5b60006119da85828601611634565b92505060206119eb858286016115a9565b9150509250929050565b7f4e487b7100000000000000000000000000000000000000000000000000000000600052603260045260246000fd5b7f4e487b7100000000000000000000000000000000000000000000000000000000600052602260045260246000fd5b60006002820490506001821680611a6b57607f821691505b60208210811415611a7f57611a7e611a24565b5b50919050565b7f416c726561647920636c6f736564000000000000000000000000000000000000600082015250565b6000611abb600e8361188d565b9150611ac682611a85565b602082019050919050565b60006020820190508181036000830152611aea81611aae565b9050919050565b6000602082019050611b066000830184611864565b92915050565b600081519050611b1b81611592565b92915050565b600060208284031215611b3757611b3661157e565b5b6000611b4584828501611b0c565b91505092915050565b7f596f75206e656564206174206c656173742031204e465420666f72206163746960008201527f6f6e732e00000000000000000000000000000000000000000000000000000000602082015250565b6000611baa60248361188d565b9150611bb582611b4e565b604082019050919050565b60006020820190508181036000830152611bd981611b9d565b9050919050565b7f4e6f742073756666696369656e742066756e6e64730000000000000000000000600082015250565b6000611c1660158361188d565b9150611c2182611be0565b602082019050919050565b60006020820190508181036000830152611c4581611c09565b9050919050565b7f4e487b7100000000000000000000000000000000000000000000000000000000600052601160045260246000fd5b6000611c8682611588565b9150611c9183611588565b9250827fffffffffffffffffffffffffffffffffffffffffffffffffffffffffffffffff03821115611cc657611cc5611c4c565b5b828201905092915050565b7f416c726561647920766f74656400000000000000000000000000000000000000600082015250565b6000611d07600d8361188d565b9150611d1282611cd1565b602082019050919050565b60006020820190508181036000830152611d3681611cfa565b9050919050565b6000611d4882611588565b91507fffffffffffffffffffffffffffffffffffffffffffffffffffffffffffffffff821415611d7b57611d7a611c4c565b5b60018201905091905056fea264697066735822122097b3c86b952a99ab21d9bb796a168a5249f294ff243b71d777c879944d59b13e64736f6c634300080a0033",
  "immutableReferences": {},
  "source": "// SPDX-License-Identifier: MIT\r\npragma solidity 0.8.10;\r\n\r\n//         .\r\n//    NFT .\r\n\r\ninterface IERC721 {\r\n    /**\r\n     * @dev Returns the number of tokens in ``owner``'s account.\r\n     */\r\n    function balanceOf(address owner) external view returns (uint256 balance);\r\n}\r\n\r\ncontract RarinonDAO {\r\n    IERC721 _nft;  // Base NFT token for DAO voting.\r\n    uint256 _round_sec; // ROund length in seconds.\r\n    uint32 _quorum; // How many votes nedded to accept or reject voting.\r\n\r\n    struct Proposal{\r\n        address recepinet;\r\n        uint256 amount;\r\n        string title;\r\n        string url;\r\n        address[] voters;\r\n        uint32 nyes;\r\n        uint32 nno;\r\n        uint256 end_at;\r\n        bool closed;\r\n    }\r\n\r\n    Proposal[] public history;\r\n\r\n    constructor(address nft, uint256 round_sec, uint8 quorum) {\r\n        _nft = IERC721(nft);\r\n        _round_sec = round_sec;\r\n        _quorum = quorum;\r\n    }\r\n\r\n    modifier onlyMember() {        \r\n        require(_nft.balanceOf(msg.sender) > 0, \"You need at least 1 NFT for actions.\");\r\n        _;\r\n    }\r\n\r\n    function didVote(address voter, uint256 vote_id) public view returns (bool) {\r\n        require(vote_id < history.length);\r\n        Proposal memory proposal = history[vote_id];\r\n        for (uint256 i = 0; i < proposal.voters.length; i++){\r\n            if (proposal.voters[i] == voter) return true;\r\n        }\r\n        return false;\r\n    }\r\n\r\n    //  .\r\n    function addProposal(address recepinet, uint256 amount, string memory title, string memory url) onlyMember public {\r\n        require(address(this).balance >= amount, \"Not sufficient funnds\");\r\n\r\n        address[] memory dump;\r\n        Proposal memory proposal = Proposal(recepinet, amount, title, url, dump, 0, 0, block.timestamp + _round_sec, false);\r\n        history.push(proposal);\r\n    }\r\n\r\n    //\r\n    function voteYes(uint256 vote_id) onlyMember public {\r\n        require(!didVote(msg.sender, vote_id), \"Already voted\");\r\n\r\n        Proposal storage proposal = history[vote_id];\r\n        proposal.voters.push(msg.sender);\r\n\r\n        if (canClose(vote_id)) close(vote_id);\r\n    }\r\n\r\n    function voteNo(uint256 vote_id) onlyMember public {\r\n        require(!didVote(msg.sender, vote_id), \"Already voted\");\r\n\r\n        Proposal storage proposal = history[vote_id];\r\n        proposal.voters.push(msg.sender);\r\n\r\n        if (canClose(vote_id)) close(vote_id);\r\n    }\r\n\r\n    function canClose(uint256 vote_id) public view returns (bool){\r\n        require(vote_id < history.length);\r\n        Proposal memory proposal = history[vote_id];\r\n\r\n        return proposal.nyes >= _quorum || proposal.nno >= _quorum || block.timestamp >= proposal.end_at;        \r\n    }\r\n\r\n    function close(uint256 vote_id) public {\r\n        require(canClose(vote_id));\r\n        \r\n        Proposal memory proposal = history[vote_id];\r\n        require(!proposal.closed, \"Already closed\");\r\n\r\n        proposal.closed = true;\r\n\r\n        // Quorum agreed proposal. Transfer money and close proposal.\r\n        if (proposal.nyes >= _quorum){\r\n             payable(proposal.recepinet).transfer(proposal.amount);\r\n        }\r\n    }\r\n\r\n    // @notice Will receive any eth sent to the contract\r\n    receive() external payable {}\r\n}\r\n",
  "sourcePath": "D:\\dev\\bia\\git\\nft-dao\\contracts\\RarinonDAO.sol",
  "compiler": {
    "name": "solc",
    "version": "0.8.10+commit.fc410830.Emscripten.clang"
  },
  "schemaVersion": "3.4.3",
  "updatedAt": "2021-12-07T06:04:31.410Z",
  "devdoc": {
    "kind": "dev",
    "methods": {},
    "version": 1
  },
  "userdoc": {
    "kind": "user",
    "methods": {},
    "version": 1
  }
}