{
  "contractName": "RarinonAuction",
  "abi": [
    {
      "inputs": [
        {
          "internalType": "address",
          "name": "nft_",
          "type": "address"
        },
        {
          "internalType": "address",
          "name": "dao_",
          "type": "address"
        },
        {
          "internalType": "uint256",
          "name": "round_time_",
          "type": "uint256"
        },
        {
          "internalType": "address",
          "name": "father_",
          "type": "address"
        },
        {
          "internalType": "uint8",
          "name": "father_period_",
          "type": "uint8"
        }
      ],
      "stateMutability": "nonpayable",
      "type": "constructor"
    },
    {
      "anonymous": false,
      "inputs": [
        {
          "indexed": true,
          "internalType": "address",
          "name": "bidder",
          "type": "address"
        },
        {
          "indexed": true,
          "internalType": "uint256",
          "name": "value",
          "type": "uint256"
        }
      ],
      "name": "Bid",
      "type": "event"
    },
    {
      "anonymous": false,
      "inputs": [
        {
          "indexed": true,
          "internalType": "uint256",
          "name": "round",
          "type": "uint256"
        },
        {
          "indexed": true,
          "internalType": "uint256",
          "name": "tokenId",
          "type": "uint256"
        },
        {
          "indexed": false,
          "internalType": "address",
          "name": "winner",
          "type": "address"
        }
      ],
      "name": "Close",
      "type": "event"
    },
    {
      "anonymous": false,
      "inputs": [
        {
          "indexed": true,
          "internalType": "uint256",
          "name": "round",
          "type": "uint256"
        },
        {
          "indexed": true,
          "internalType": "uint256",
          "name": "tokenId",
          "type": "uint256"
        },
        {
          "indexed": true,
          "internalType": "uint256",
          "name": "end_at",
          "type": "uint256"
        }
      ],
      "name": "Open",
      "type": "event"
    },
    {
      "anonymous": false,
      "inputs": [
        {
          "indexed": true,
          "internalType": "address",
          "name": "previousOwner",
          "type": "address"
        },
        {
          "indexed": true,
          "internalType": "address",
          "name": "newOwner",
          "type": "address"
        }
      ],
      "name": "OwnershipTransferred",
      "type": "event"
    },
    {
      "inputs": [],
      "name": "dao",
      "outputs": [
        {
          "internalType": "address",
          "name": "",
          "type": "address"
        }
      ],
      "stateMutability": "view",
      "type": "function"
    },
    {
      "inputs": [],
      "name": "father",
      "outputs": [
        {
          "internalType": "address",
          "name": "",
          "type": "address"
        }
      ],
      "stateMutability": "view",
      "type": "function"
    },
    {
      "inputs": [],
      "name": "father_period",
      "outputs": [
        {
          "internalType": "uint8",
          "name": "",
          "type": "uint8"
        }
      ],
      "stateMutability": "view",
      "type": "function"
    },
    {
      "inputs": [],
      "name": "owner",
      "outputs": [
        {
          "internalType": "address",
          "name": "",
          "type": "address"
        }
      ],
      "stateMutability": "view",
      "type": "function"
    },
    {
      "inputs": [],
      "name": "renounceOwnership",
      "outputs": [],
      "stateMutability": "nonpayable",
      "type": "function"
    },
    {
      "inputs": [],
      "name": "round_time",
      "outputs": [
        {
          "internalType": "uint256",
          "name": "",
          "type": "uint256"
        }
      ],
      "stateMutability": "view",
      "type": "function"
    },
    {
      "inputs": [],
      "name": "till_father",
      "outputs": [
        {
          "internalType": "uint8",
          "name": "",
          "type": "uint8"
        }
      ],
      "stateMutability": "view",
      "type": "function"
    },
    {
      "inputs": [
        {
          "internalType": "address",
          "name": "newOwner",
          "type": "address"
        }
      ],
      "name": "transferOwnership",
      "outputs": [],
      "stateMutability": "nonpayable",
      "type": "function"
    },
    {
      "stateMutability": "payable",
      "type": "receive"
    },
    {
      "inputs": [],
      "name": "historyCount",
      "outputs": [
        {
          "internalType": "uint256",
          "name": "",
          "type": "uint256"
        }
      ],
      "stateMutability": "view",
      "type": "function"
    },
    {
      "inputs": [
        {
          "internalType": "uint256",
          "name": "index",
          "type": "uint256"
        }
      ],
      "name": "history",
      "outputs": [
        {
          "components": [
            {
              "internalType": "uint256",
              "name": "tokenId",
              "type": "uint256"
            },
            {
              "internalType": "uint256",
              "name": "end_at",
              "type": "uint256"
            },
            {
              "internalType": "bool",
              "name": "closed",
              "type": "bool"
            },
            {
              "internalType": "address[]",
              "name": "bidders",
              "type": "address[]"
            },
            {
              "internalType": "uint256[]",
              "name": "bids",
              "type": "uint256[]"
            },
            {
              "internalType": "address",
              "name": "winner",
              "type": "address"
            }
          ],
          "internalType": "struct RarinonAuction.Round",
          "name": "",
          "type": "tuple"
        }
      ],
      "stateMutability": "view",
      "type": "function"
    },
    {
      "inputs": [
        {
          "internalType": "uint256",
          "name": "round_time_",
          "type": "uint256"
        }
      ],
      "name": "set_round_time",
      "outputs": [],
      "stateMutability": "nonpayable",
      "type": "function"
    },
    {
      "inputs": [
        {
          "internalType": "address",
          "name": "dao_",
          "type": "address"
        }
      ],
      "name": "set_dao",
      "outputs": [],
      "stateMutability": "nonpayable",
      "type": "function"
    },
    {
      "inputs": [
        {
          "internalType": "string",
          "name": "uri",
          "type": "string"
        }
      ],
      "name": "createRound",
      "outputs": [],
      "stateMutability": "nonpayable",
      "type": "function"
    },
    {
      "inputs": [],
      "name": "createBid",
      "outputs": [],
      "stateMutability": "payable",
      "type": "function"
    },
    {
      "inputs": [],
      "name": "canClose",
      "outputs": [
        {
          "internalType": "bool",
          "name": "",
          "type": "bool"
        }
      ],
      "stateMutability": "view",
      "type": "function"
    },
    {
      "inputs": [],
      "name": "close",
      "outputs": [],
      "stateMutability": "nonpayable",
      "type": "function"
    }
  ],
  "bytecode": "0x60806040523480156200001157600080fd5b5060405162002f9f38038062002f9f8339818101604052810190620000379190620006f4565b620000576200004b620003b160201b60201c565b620003b960201b60201c565b600073ffffffffffffffffffffffffffffffffffffffff168573ffffffffffffffffffffffffffffffffffffffff161415620000ca576040517f08c379a0000000000000000000000000000000000000000000000000000000008152600401620000c190620007dd565b60405180910390fd5b620000e0856200047d60201b620013781760201c565b62000122576040517f08c379a000000000000000000000000000000000000000000000000000000000815260040162000119906200084f565b60405180910390fd5b600073ffffffffffffffffffffffffffffffffffffffff168473ffffffffffffffffffffffffffffffffffffffff16141562000195576040517f08c379a00000000000000000000000000000000000000000000000000000000081526004016200018c90620008c1565b60405180910390fd5b60008311620001db576040517f08c379a0000000000000000000000000000000000000000000000000000000008152600401620001d29062000933565b60405180910390fd5b600073ffffffffffffffffffffffffffffffffffffffff168273ffffffffffffffffffffffffffffffffffffffff1614156200024e576040517f08c379a00000000000000000000000000000000000000000000000000000000081526004016200024590620009a5565b60405180910390fd5b60018160ff161162000297576040517f08c379a00000000000000000000000000000000000000000000000000000000081526004016200028e9062000a17565b60405180910390fd5b84600160006101000a81548173ffffffffffffffffffffffffffffffffffffffff021916908373ffffffffffffffffffffffffffffffffffffffff16021790555083600260006101000a81548173ffffffffffffffffffffffffffffffffffffffff021916908373ffffffffffffffffffffffffffffffffffffffff1602179055508260038190555081600460016101000a81548173ffffffffffffffffffffffffffffffffffffffff021916908373ffffffffffffffffffffffffffffffffffffffff16021790555080600460006101000a81548160ff021916908360ff160217905550600460009054906101000a900460ff16600460156101000a81548160ff021916908360ff160217905550505050505062000b9e565b600033905090565b60008060009054906101000a900473ffffffffffffffffffffffffffffffffffffffff169050816000806101000a81548173ffffffffffffffffffffffffffffffffffffffff021916908373ffffffffffffffffffffffffffffffffffffffff1602179055508173ffffffffffffffffffffffffffffffffffffffff168173ffffffffffffffffffffffffffffffffffffffff167f8be0079c531659141344cd1fd0a4f28419497f9722a3daafe3b4186f6b6457e060405160405180910390a35050565b6000620004b1827f01ffc9a700000000000000000000000000000000000000000000000000000000620004db60201b60201c565b8015620004d45750620004d28263ffffffff60e01b620004db60201b60201c565b155b9050919050565b6000806301ffc9a760e01b83604051602401620004f9919062000a76565b604051602081830303815290604052907bffffffffffffffffffffffffffffffffffffffffffffffffffffffff19166020820180517bffffffffffffffffffffffffffffffffffffffffffffffffffffffff838183161783525050505090506000808573ffffffffffffffffffffffffffffffffffffffff166175308460405162000585919062000b16565b6000604051808303818686fa925050503d8060008114620005c3576040519150601f19603f3d011682016040523d82523d6000602084013e620005c8565b606091505b5091509150602081511015620005e557600093505050506200060b565b8180156200060557508080602001905181019062000604919062000b6c565b5b93505050505b92915050565b600080fd5b600073ffffffffffffffffffffffffffffffffffffffff82169050919050565b6000620006438262000616565b9050919050565b620006558162000636565b81146200066157600080fd5b50565b60008151905062000675816200064a565b92915050565b6000819050919050565b62000690816200067b565b81146200069c57600080fd5b50565b600081519050620006b08162000685565b92915050565b600060ff82169050919050565b620006ce81620006b6565b8114620006da57600080fd5b50565b600081519050620006ee81620006c3565b92915050565b600080600080600060a0868803121562000713576200071262000611565b5b6000620007238882890162000664565b9550506020620007368882890162000664565b945050604062000749888289016200069f565b93505060606200075c8882890162000664565b92505060806200076f88828901620006dd565b9150509295509295909350565b600082825260208201905092915050565b7f6e66742063616e206e6f74206265203000000000000000000000000000000000600082015250565b6000620007c56010836200077c565b9150620007d2826200078d565b602082019050919050565b60006020820190508181036000830152620007f881620007b6565b9050919050565b7f6164647265737320646f6573206e6f7420737570706f72742049455243313635600082015250565b6000620008376020836200077c565b91506200084482620007ff565b602082019050919050565b600060208201905081810360008301526200086a8162000828565b9050919050565b7f64616f2063616e206e6f74206265203000000000000000000000000000000000600082015250565b6000620008a96010836200077c565b9150620008b68262000871565b602082019050919050565b60006020820190508181036000830152620008dc816200089a565b9050919050565b7f726f756e645f74696d65206d7573742062652067726561746865722030000000600082015250565b60006200091b601d836200077c565b91506200092882620008e3565b602082019050919050565b600060208201905081810360008301526200094e816200090c565b9050919050565b7f6661746865722063616e206e6f74206265203000000000000000000000000000600082015250565b60006200098d6013836200077c565b91506200099a8262000955565b602082019050919050565b60006020820190508181036000830152620009c0816200097e565b9050919050565b7f6661746865725f706572696f64206d7573742062652067726561746865722031600082015250565b6000620009ff6020836200077c565b915062000a0c82620009c7565b602082019050919050565b6000602082019050818103600083015262000a3281620009f0565b9050919050565b60007fffffffff0000000000000000000000000000000000000000000000000000000082169050919050565b62000a708162000a39565b82525050565b600060208201905062000a8d600083018462000a65565b92915050565b600081519050919050565b600081905092915050565b60005b8381101562000ac957808201518184015260208101905062000aac565b8381111562000ad9576000848401525b50505050565b600062000aec8262000a93565b62000af8818562000a9e565b935062000b0a81856020860162000aa9565b80840191505092915050565b600062000b24828462000adf565b915081905092915050565b60008115159050919050565b62000b468162000b2f565b811462000b5257600080fd5b50565b60008151905062000b668162000b3b565b92915050565b60006020828403121562000b855762000b8462000611565b5b600062000b958482850162000b55565b91505092915050565b6123f18062000bae6000396000f3fe6080604052600436106100f75760003560e01c80638da5cb5b1161008a578063d32ce1f611610059578063d32ce1f6146102ca578063ecbd9a00146102f5578063f2fde38b14610320578063f7049d7814610349576100fe565b80638da5cb5b1461020e578063a079510114610239578063a7a38f0b14610262578063bca6b8191461029f576100fe565b806343d726d6116100c657806343d726d6146101ad578063715018a6146101c457806383624074146101db5780638976b611146101e5576100fe565b80631c8aca3b146101035780632f88a3ce1461012e5780633a9c9ffc146101575780634162169f14610182576100fe565b366100fe57005b600080fd5b34801561010f57600080fd5b50610118610374565b604051610125919061173f565b60405180910390f35b34801561013a57600080fd5b50610155600480360381019061015091906118b4565b61039a565b005b34801561016357600080fd5b5061016c61070c565b6040516101799190611916565b60405180910390f35b34801561018e57600080fd5b50610197610719565b6040516101a4919061173f565b60405180910390f35b3480156101b957600080fd5b506101c261073f565b005b3480156101d057600080fd5b506101d9610b08565b005b6101e3610b90565b005b3480156101f157600080fd5b5061020c6004803603810190610207919061195d565b610e2a565b005b34801561021a57600080fd5b50610223610ef3565b604051610230919061173f565b60405180910390f35b34801561024557600080fd5b50610260600480360381019061025b91906119b6565b610f1c565b005b34801561026e57600080fd5b506102896004803603810190610284919061195d565b61104c565b6040516102969190611c0a565b60405180910390f35b3480156102ab57600080fd5b506102b46111f3565b6040516102c19190611916565b60405180910390f35b3480156102d657600080fd5b506102df6111f9565b6040516102ec9190611c48565b60405180910390f35b34801561030157600080fd5b5061030a61120c565b6040516103179190611c48565b60405180910390f35b34801561032c57600080fd5b50610347600480360381019061034291906119b6565b61121f565b005b34801561035557600080fd5b5061035e611317565b60405161036b9190611c72565b60405180910390f35b600460019054906101000a900473ffffffffffffffffffffffffffffffffffffffff1681565b600060058054905014806103ee5750600560016005805490506103bd9190611cbc565b815481106103ce576103cd611cf0565b5b906000526020600020906006020160020160009054906101000a900460ff165b61042d576040517f08c379a000000000000000000000000000000000000000000000000000000000815260040161042490611d7c565b60405180910390fd5b600060608061043a6115bc565b60006003544261044a9190611d9c565b90506000600160009054906101000a900473ffffffffffffffffffffffffffffffffffffffff1673ffffffffffffffffffffffffffffffffffffffff1663d0def52130896040518363ffffffff1660e01b81526004016104ab929190611e69565b6020604051808303816000875af11580156104ca573d6000803e3d6000fd5b505050506040513d601f19601f820116820180604052508101906104ee9190611eae565b95506001600460159054906101000a900460ff1660ff161161056157600460009054906101000a900460ff16600460156101000a81548160ff021916908360ff160217905550600460019054906101000a900473ffffffffffffffffffffffffffffffffffffffff169050429150610598565b6001600460159054906101000a900460ff1661057d9190611edb565b600460156101000a81548160ff021916908360ff1602179055505b6040518060c001604052808781526020018381526020016000151581526020018681526020018581526020018273ffffffffffffffffffffffffffffffffffffffff1681525092506005839080600181540180825580915050600190039060005260206000209060060201600090919091909150600082015181600001556020820151816001015560408201518160020160006101000a81548160ff021916908315150217905550606082015181600301908051906020019061065c92919061160a565b506080820151816004019080519060200190610679929190611694565b5060a08201518160050160006101000a81548173ffffffffffffffffffffffffffffffffffffffff021916908373ffffffffffffffffffffffffffffffffffffffff1602179055505050818660016005805490506106d79190611cbc565b7f11b31b436792d2e77105df5b9a822dcd56f23ff877fd17c7e4eb3f0dc9b18b8660405160405180910390a450505050505050565b6000600580549050905090565b600260009054906101000a900473ffffffffffffffffffffffffffffffffffffffff1681565b610747611317565b610786576040517f08c379a000000000000000000000000000000000000000000000000000000000815260040161077d90611f5b565b60405180910390fd5b60006005600160058054905061079c9190611cbc565b815481106107ad576107ac611cf0565b5b9060005260206000209060060201905060018160020160006101000a81548160ff0219169083151502179055506000816003018054905011156108ea57600260009054906101000a900473ffffffffffffffffffffffffffffffffffffffff1673ffffffffffffffffffffffffffffffffffffffff166108fc479081150290604051600060405180830381858888f19350505050158015610852573d6000803e3d6000fd5b50806003016001826003018054905061086b9190611cbc565b8154811061087c5761087b611cf0565b5b9060005260206000200160009054906101000a900473ffffffffffffffffffffffffffffffffffffffff168160050160006101000a81548173ffffffffffffffffffffffffffffffffffffffff021916908373ffffffffffffffffffffffffffffffffffffffff1602179055505b600073ffffffffffffffffffffffffffffffffffffffff168160050160009054906101000a900473ffffffffffffffffffffffffffffffffffffffff1673ffffffffffffffffffffffffffffffffffffffff1614156109d957600160009054906101000a900473ffffffffffffffffffffffffffffffffffffffff1673ffffffffffffffffffffffffffffffffffffffff166342966c6882600001546040518263ffffffff1660e01b81526004016109a29190611916565b600060405180830381600087803b1580156109bc57600080fd5b505af11580156109d0573d6000803e3d6000fd5b50505050610a93565b600160009054906101000a900473ffffffffffffffffffffffffffffffffffffffff1673ffffffffffffffffffffffffffffffffffffffff166342842e0e308360050160009054906101000a900473ffffffffffffffffffffffffffffffffffffffff1684600001546040518463ffffffff1660e01b8152600401610a6093929190611f7b565b600060405180830381600087803b158015610a7a57600080fd5b505af1158015610a8e573d6000803e3d6000fd5b505050505b80600001546001600580549050610aaa9190611cbc565b7f2ff178077cb817bd0e9acfcadc524a4740b254ac77e064c0c2e7b117fd79451e8360050160009054906101000a900473ffffffffffffffffffffffffffffffffffffffff16604051610afd919061173f565b60405180910390a350565b610b106113c5565b73ffffffffffffffffffffffffffffffffffffffff16610b2e610ef3565b73ffffffffffffffffffffffffffffffffffffffff1614610b84576040517f08c379a0000000000000000000000000000000000000000000000000000000008152600401610b7b90611ffe565b60405180910390fd5b610b8e60006113cd565b565b600060056001600580549050610ba69190611cbc565b81548110610bb757610bb6611cf0565b5b90600052602060002090600602019050600080826004018054905011610bde576000610c13565b8160040160018360040180549050610bf69190611cbc565b81548110610c0757610c06611cf0565b5b90600052602060002001545b90506000600a600d83610c26919061201e565b610c3091906120a7565b9050803411610c74576040517f08c379a0000000000000000000000000000000000000000000000000000000008152600401610c6b90612124565b60405180910390fd5b82600301339080600181540180825580915050600190039060005260206000200160009091909190916101000a81548173ffffffffffffffffffffffffffffffffffffffff021916908373ffffffffffffffffffffffffffffffffffffffff16021790555082600401349080600181540180825580915050600190039060005260206000200160009091909190915055600183600301805490501115610de15760008360040180549050905083600301600282610d319190611cbc565b81548110610d4257610d41611cf0565b5b9060005260206000200160009054906101000a900473ffffffffffffffffffffffffffffffffffffffff1673ffffffffffffffffffffffffffffffffffffffff166108fc85600401600284610d979190611cbc565b81548110610da857610da7611cf0565b5b90600052602060002001549081150290604051600060405180830381858888f19350505050158015610dde573d6000803e3d6000fd5b50505b343373ffffffffffffffffffffffffffffffffffffffff167fe684a55f31b79eca403df938249029212a5925ec6be8012e099b45bc1019e5d260405160405180910390a3505050565b610e326113c5565b73ffffffffffffffffffffffffffffffffffffffff16610e50610ef3565b73ffffffffffffffffffffffffffffffffffffffff1614610ea6576040517f08c379a0000000000000000000000000000000000000000000000000000000008152600401610e9d90611ffe565b60405180910390fd5b60008111610ee9576040517f08c379a0000000000000000000000000000000000000000000000000000000008152600401610ee090612190565b60405180910390fd5b8060038190555050565b60008060009054906101000a900473ffffffffffffffffffffffffffffffffffffffff16905090565b610f246113c5565b73ffffffffffffffffffffffffffffffffffffffff16610f42610ef3565b73ffffffffffffffffffffffffffffffffffffffff1614610f98576040517f08c379a0000000000000000000000000000000000000000000000000000000008152600401610f8f90611ffe565b60405180910390fd5b600073ffffffffffffffffffffffffffffffffffffffff168173ffffffffffffffffffffffffffffffffffffffff161415611008576040517f08c379a0000000000000000000000000000000000000000000000000000000008152600401610fff906121fc565b60405180910390fd5b80600260006101000a81548173ffffffffffffffffffffffffffffffffffffffff021916908373ffffffffffffffffffffffffffffffffffffffff16021790555050565b6110546115bc565b6005828154811061106857611067611cf0565b5b90600052602060002090600602016040518060c001604052908160008201548152602001600182015481526020016002820160009054906101000a900460ff161515151581526020016003820180548060200260200160405190810160405280929190818152602001828054801561113557602002820191906000526020600020905b8160009054906101000a900473ffffffffffffffffffffffffffffffffffffffff1673ffffffffffffffffffffffffffffffffffffffff16815260200190600101908083116110eb575b505050505081526020016004820180548060200260200160405190810160405280929190818152602001828054801561118d57602002820191906000526020600020905b815481526020019060010190808311611179575b505050505081526020016005820160009054906101000a900473ffffffffffffffffffffffffffffffffffffffff1673ffffffffffffffffffffffffffffffffffffffff1673ffffffffffffffffffffffffffffffffffffffff16815250509050919050565b60035481565b600460009054906101000a900460ff1681565b600460159054906101000a900460ff1681565b6112276113c5565b73ffffffffffffffffffffffffffffffffffffffff16611245610ef3565b73ffffffffffffffffffffffffffffffffffffffff161461129b576040517f08c379a000000000000000000000000000000000000000000000000000000000815260040161129290611ffe565b60405180910390fd5b600073ffffffffffffffffffffffffffffffffffffffff168173ffffffffffffffffffffffffffffffffffffffff16141561130b576040517f08c379a00000000000000000000000000000000000000000000000000000000081526004016113029061228e565b60405180910390fd5b611314816113cd565b50565b6000806005600160058054905061132e9190611cbc565b8154811061133f5761133e611cf0565b5b906000526020600020906006020190508060020160009054906101000a900460ff16158015611372575080600101544210155b91505090565b60006113a4827f01ffc9a700000000000000000000000000000000000000000000000000000000611491565b80156113be57506113bc8263ffffffff60e01b611491565b155b9050919050565b600033905090565b60008060009054906101000a900473ffffffffffffffffffffffffffffffffffffffff169050816000806101000a81548173ffffffffffffffffffffffffffffffffffffffff021916908373ffffffffffffffffffffffffffffffffffffffff1602179055508173ffffffffffffffffffffffffffffffffffffffff168173ffffffffffffffffffffffffffffffffffffffff167f8be0079c531659141344cd1fd0a4f28419497f9722a3daafe3b4186f6b6457e060405160405180910390a35050565b6000806301ffc9a760e01b836040516024016114ad91906122e9565b604051602081830303815290604052907bffffffffffffffffffffffffffffffffffffffffffffffffffffffff19166020820180517bffffffffffffffffffffffffffffffffffffffffffffffffffffffff838183161783525050505090506000808573ffffffffffffffffffffffffffffffffffffffff1661753084604051611537919061234b565b6000604051808303818686fa925050503d8060008114611573576040519150601f19603f3d011682016040523d82523d6000602084013e611578565b606091505b509150915060208151101561159357600093505050506115b6565b8180156115b05750808060200190518101906115af919061238e565b5b93505050505b92915050565b6040518060c0016040528060008152602001600081526020016000151581526020016060815260200160608152602001600073ffffffffffffffffffffffffffffffffffffffff1681525090565b828054828255906000526020600020908101928215611683579160200282015b828111156116825782518260006101000a81548173ffffffffffffffffffffffffffffffffffffffff021916908373ffffffffffffffffffffffffffffffffffffffff1602179055509160200191906001019061162a565b5b50905061169091906116e1565b5090565b8280548282559060005260206000209081019282156116d0579160200282015b828111156116cf5782518255916020019190600101906116b4565b5b5090506116dd91906116e1565b5090565b5b808211156116fa5760008160009055506001016116e2565b5090565b600073ffffffffffffffffffffffffffffffffffffffff82169050919050565b6000611729826116fe565b9050919050565b6117398161171e565b82525050565b60006020820190506117546000830184611730565b92915050565b6000604051905090565b600080fd5b600080fd5b600080fd5b600080fd5b6000601f19601f8301169050919050565b7f4e487b7100000000000000000000000000000000000000000000000000000000600052604160045260246000fd5b6117c182611778565b810181811067ffffffffffffffff821117156117e0576117df611789565b5b80604052505050565b60006117f361175a565b90506117ff82826117b8565b919050565b600067ffffffffffffffff82111561181f5761181e611789565b5b61182882611778565b9050602081019050919050565b82818337600083830152505050565b600061185761185284611804565b6117e9565b90508281526020810184848401111561187357611872611773565b5b61187e848285611835565b509392505050565b600082601f83011261189b5761189a61176e565b5b81356118ab848260208601611844565b91505092915050565b6000602082840312156118ca576118c9611764565b5b600082013567ffffffffffffffff8111156118e8576118e7611769565b5b6118f484828501611886565b91505092915050565b6000819050919050565b611910816118fd565b82525050565b600060208201905061192b6000830184611907565b92915050565b61193a816118fd565b811461194557600080fd5b50565b60008135905061195781611931565b92915050565b60006020828403121561197357611972611764565b5b600061198184828501611948565b91505092915050565b6119938161171e565b811461199e57600080fd5b50565b6000813590506119b08161198a565b92915050565b6000602082840312156119cc576119cb611764565b5b60006119da848285016119a1565b91505092915050565b6119ec816118fd565b82525050565b60008115159050919050565b611a07816119f2565b82525050565b600081519050919050565b600082825260208201905092915050565b6000819050602082019050919050565b611a428161171e565b82525050565b6000611a548383611a39565b60208301905092915050565b6000602082019050919050565b6000611a7882611a0d565b611a828185611a18565b9350611a8d83611a29565b8060005b83811015611abe578151611aa58882611a48565b9750611ab083611a60565b925050600181019050611a91565b5085935050505092915050565b600081519050919050565b600082825260208201905092915050565b6000819050602082019050919050565b6000611b0383836119e3565b60208301905092915050565b6000602082019050919050565b6000611b2782611acb565b611b318185611ad6565b9350611b3c83611ae7565b8060005b83811015611b6d578151611b548882611af7565b9750611b5f83611b0f565b925050600181019050611b40565b5085935050505092915050565b600060c083016000830151611b9260008601826119e3565b506020830151611ba560208601826119e3565b506040830151611bb860408601826119fe565b5060608301518482036060860152611bd08282611a6d565b91505060808301518482036080860152611bea8282611b1c565b91505060a0830151611bff60a0860182611a39565b508091505092915050565b60006020820190508181036000830152611c248184611b7a565b905092915050565b600060ff82169050919050565b611c4281611c2c565b82525050565b6000602082019050611c5d6000830184611c39565b92915050565b611c6c816119f2565b82525050565b6000602082019050611c876000830184611c63565b92915050565b7f4e487b7100000000000000000000000000000000000000000000000000000000600052601160045260246000fd5b6000611cc7826118fd565b9150611cd2836118fd565b925082821015611ce557611ce4611c8d565b5b828203905092915050565b7f4e487b7100000000000000000000000000000000000000000000000000000000600052603260045260246000fd5b600082825260208201905092915050565b7f41756374696f6e20696e2070726f677265737300000000000000000000000000600082015250565b6000611d66601383611d1f565b9150611d7182611d30565b602082019050919050565b60006020820190508181036000830152611d9581611d59565b9050919050565b6000611da7826118fd565b9150611db2836118fd565b9250827fffffffffffffffffffffffffffffffffffffffffffffffffffffffffffffffff03821115611de757611de6611c8d565b5b828201905092915050565b600081519050919050565b60005b83811015611e1b578082015181840152602081019050611e00565b83811115611e2a576000848401525b50505050565b6000611e3b82611df2565b611e458185611d1f565b9350611e55818560208601611dfd565b611e5e81611778565b840191505092915050565b6000604082019050611e7e6000830185611730565b8181036020830152611e908184611e30565b90509392505050565b600081519050611ea881611931565b92915050565b600060208284031215611ec457611ec3611764565b5b6000611ed284828501611e99565b91505092915050565b6000611ee682611c2c565b9150611ef183611c2c565b925082821015611f0457611f03611c8d565b5b828203905092915050565b7f43616e206e6f7420636c6f73652061756374696f6e206e6f772e000000000000600082015250565b6000611f45601a83611d1f565b9150611f5082611f0f565b602082019050919050565b60006020820190508181036000830152611f7481611f38565b9050919050565b6000606082019050611f906000830186611730565b611f9d6020830185611730565b611faa6040830184611907565b949350505050565b7f4f776e61626c653a2063616c6c6572206973206e6f7420746865206f776e6572600082015250565b6000611fe8602083611d1f565b9150611ff382611fb2565b602082019050919050565b6000602082019050818103600083015261201781611fdb565b9050919050565b6000612029826118fd565b9150612034836118fd565b9250817fffffffffffffffffffffffffffffffffffffffffffffffffffffffffffffffff048311821515161561206d5761206c611c8d565b5b828202905092915050565b7f4e487b7100000000000000000000000000000000000000000000000000000000600052601260045260246000fd5b60006120b2826118fd565b91506120bd836118fd565b9250826120cd576120cc612078565b5b828204905092915050565b7f42696420697320746f6f206c6f772e0000000000000000000000000000000000600082015250565b600061210e600f83611d1f565b9150612119826120d8565b602082019050919050565b6000602082019050818103600083015261213d81612101565b9050919050565b7f726f756e645f74696d65206d7573742062652067726561746865722030000000600082015250565b600061217a601d83611d1f565b915061218582612144565b602082019050919050565b600060208201905081810360008301526121a98161216d565b9050919050565b7f64616f2063616e206e6f74206265203000000000000000000000000000000000600082015250565b60006121e6601083611d1f565b91506121f1826121b0565b602082019050919050565b60006020820190508181036000830152612215816121d9565b9050919050565b7f4f776e61626c653a206e6577206f776e657220697320746865207a65726f206160008201527f6464726573730000000000000000000000000000000000000000000000000000602082015250565b6000612278602683611d1f565b91506122838261221c565b604082019050919050565b600060208201905081810360008301526122a78161226b565b9050919050565b60007fffffffff0000000000000000000000000000000000000000000000000000000082169050919050565b6122e3816122ae565b82525050565b60006020820190506122fe60008301846122da565b92915050565b600081519050919050565b600081905092915050565b600061232582612304565b61232f818561230f565b935061233f818560208601611dfd565b80840191505092915050565b6000612357828461231a565b915081905092915050565b61236b816119f2565b811461237657600080fd5b50565b60008151905061238881612362565b92915050565b6000602082840312156123a4576123a3611764565b5b60006123b284828501612379565b9150509291505056fea26469706673582212200abdfc08d3fb517e6b06f9197daa9de5b0233d87549349c0d21bfbfbb981c85064736f6c634300080a0033",
  "immutableReferences": {},
  "source": "// SPDX-License-Identifier: MIT\r\npragma solidity 0.8.10;\r\n\r\nimport \"openzeppelin-solidity/contracts/access/Ownable.sol\";\r\nimport \"openzeppelin-solidity/contracts/utils/introspection/ERC165Checker.sol\";\r\n\r\n//         .\r\n//    NFT .\r\n\r\ninterface IERC721 {\r\n    function mint(address recepient, string memory uri) external returns (uint256);\r\n    /**\r\n     * @dev Returns the number of tokens in ``owner``'s account.\r\n     */\r\n    function balanceOf(address owner) external view returns (uint256 balance);\r\n\r\n    /**\r\n     * @dev See {IERC721-safeTransferFrom}.\r\n     */\r\n    function safeTransferFrom(address from, address to, uint256 tokenId) external;\r\n\r\n    /**\r\n     * @dev See {IERC721-ownerOf}.\r\n     */\r\n    function ownerOf(uint256 tokenId) external view returns (address);\r\n\r\n    /**\r\n     * @dev Destroys `tokenId`.\r\n     * The approval is cleared when the token is burned.\r\n     *\r\n     * Requirements:\r\n     *\r\n     * - `tokenId` must exist.\r\n     *\r\n     * Emits a {Transfer} event.\r\n     */\r\n    function burn(uint256 tokenId) external;\r\n}\r\n\r\ncontract RarinonAuction is Ownable {\r\n    struct Round{\r\n        uint256 tokenId;\r\n        uint256 end_at;\r\n        bool closed;\r\n        address[] bidders;\r\n        uint256[] bids;\r\n        address winner;\r\n    }\r\n\r\n    IERC721 nft;  // Base NFT token for DAO voting.\r\n    address public dao;\r\n    uint256 public round_time; // Round length in seconds.\r\n    uint8 public father_period;    \r\n    address public father; // Takes every n-th token\r\n    uint8 public till_father;\r\n\r\n    Round[] _history;\r\n\r\n    event Open(uint256 indexed round, uint256 indexed tokenId, uint256 indexed end_at);\r\n    event Bid(address indexed bidder, uint256 indexed value);\r\n    event Close(uint256 indexed round, uint256 indexed tokenId, address winner);\r\n\r\n    function historyCount() public view returns (uint256){\r\n        return _history.length;\r\n    }\r\n\r\n    function history(uint256 index) public view returns (Round memory){\r\n        return _history[index];\r\n    }\r\n\r\n    constructor(address nft_, address dao_, uint256 round_time_, address father_, uint8 father_period_) {\r\n        require(nft_ != address(0), \"nft can not be 0\");\r\n        require(ERC165Checker.supportsERC165(nft_), \"address does not support IERC165\");\r\n        require(dao_ != address(0), \"dao can not be 0\");\r\n        require(round_time_ > 0, \"round_time must be greather 0\");\r\n        require(father_ != address(0), \"father can not be 0\");\r\n        require(father_period_ > 1, \"father_period must be greather 1\");\r\n\r\n        nft = IERC721(nft_);\r\n        dao = dao_;\r\n        round_time = round_time_;\r\n        father = father_;\r\n        father_period = father_period_;\r\n\r\n        till_father = father_period;\r\n    }\r\n\r\n    function set_round_time(uint256 round_time_) onlyOwner public {\r\n        require(round_time_ > 0, \"round_time must be greather 0\");\r\n        round_time = round_time_;\r\n    }\r\n\r\n    function set_dao(address dao_) onlyOwner public {\r\n        require(dao_ != address(0), \"dao can not be 0\");\r\n        dao = dao_;\r\n    }\r\n\r\n    /**\r\n    Create new auction round (mint token with uri and starts play).\r\n    Even father_period token goes to father. If so round restarts immidiately.\r\n     */\r\n    function createRound(string memory uri) public {\r\n        require(_history.length == 0 || _history[_history.length - 1].closed, \"Auction in progress\");        \r\n        uint256 tokenId;\r\n        address[] memory bidders;\r\n        uint256[] memory bids;\r\n        Round memory round;\r\n        uint256 end_at = block.timestamp + round_time;\r\n        address winner = address(0);\r\n\r\n        tokenId = nft.mint(address(this), uri);\r\n\r\n        if (till_father <= 1){            \r\n            till_father = father_period;\r\n            winner = father;\r\n            end_at = block.timestamp;\r\n        }\r\n        else{\r\n            till_father = till_father - 1;\r\n        }\r\n\r\n        round = Round(tokenId, end_at, false, bidders, bids, winner);\r\n        _history.push(round);\r\n\r\n        emit Open(_history.length - 1, tokenId, end_at);\r\n    }\r\n\r\n    function createBid() payable public {\r\n        Round storage round = _history[_history.length - 1];\r\n        uint256 currentBid = round.bids.length > 0 ? round.bids[round.bids.length - 1] : 0;\r\n        uint256 nextBid = currentBid * 13 / 10;\r\n        require(msg.value > nextBid, \"Bid is too low.\");\r\n        \r\n        round.bidders.push(msg.sender);\r\n        round.bids.push(msg.value);\r\n\r\n        // If there was another bidder, send him back his bid.\r\n        if (round.bidders.length > 1){\r\n            uint256 index = round.bids.length;\r\n            payable(round.bidders[index - 2]).transfer(round.bids[index - 2]);\r\n        }\r\n\r\n        emit Bid(msg.sender, msg.value);\r\n    }\r\n\r\n    function canClose() public view returns (bool){\r\n        Round storage round = _history[_history.length - 1];\r\n\r\n        return !round.closed && block.timestamp >= round.end_at;        \r\n    }\r\n\r\n    function close() public {\r\n        require(canClose(), \"Can not close auction now.\");\r\n        Round storage round = _history[_history.length - 1]; \r\n\r\n        round.closed = true;\r\n\r\n        // Has winner. Transfer token him. Transfer all money to dao.\r\n        if (round.bidders.length > 0){\r\n            payable(dao).transfer(address(this).balance);\r\n            round.winner = round.bidders[round.bidders.length - 1];            \r\n        }\r\n        // No winners. Just burn token.\r\n        if (round.winner == address(0)) {\r\n            nft.burn(round.tokenId);\r\n        }\r\n        else {\r\n            nft.safeTransferFrom(address(this), round.winner, round.tokenId);\r\n        }\r\n        emit Close(_history.length - 1, round.tokenId, round.winner);\r\n    }    \r\n\r\n    // @notice Will receive any eth sent to the contract\r\n    receive() external payable {}\r\n}\r\n",
  "sourcePath": "D:\\dev\\git\\bia\\nftdaofond\\truffle\\contracts\\RarinonAuction.sol",
  "compiler": {
    "name": "solc",
    "version": "0.8.10+commit.fc410830.Emscripten.clang"
  },
  "schemaVersion": "3.4.3",
  "updatedAt": "2022-02-24T09:48:15.486Z",
  "devdoc": {
    "kind": "dev",
    "methods": {
      "owner()": {
        "details": "Returns the address of the current owner."
      },
      "renounceOwnership()": {
        "details": "Leaves the contract without owner. It will not be possible to call `onlyOwner` functions anymore. Can only be called by the current owner. NOTE: Renouncing ownership will leave the contract without an owner, thereby removing any functionality that is only available to the owner."
      },
      "transferOwnership(address)": {
        "details": "Transfers ownership of the contract to a new account (`newOwner`). Can only be called by the current owner."
      }
    },
    "version": 1
  },
  "userdoc": {
    "kind": "user",
    "methods": {
      "createRound(string)": {
        "notice": "Create new auction round (mint token with uri and starts play). Even father_period token goes to father. If so round restarts immidiately."
      }
    },
    "version": 1
  }
}