{
  "contractName": "RarinonAuction",
  "abi": [
    {
      "inputs": [
        {
          "internalType": "address",
          "name": "nft_",
          "type": "address"
        },
        {
          "internalType": "address",
          "name": "dao_",
          "type": "address"
        },
        {
          "internalType": "uint256",
          "name": "round_sec_",
          "type": "uint256"
        }
      ],
      "stateMutability": "nonpayable",
      "type": "constructor"
    },
    {
      "stateMutability": "payable",
      "type": "receive"
    },
    {
      "inputs": [],
      "name": "historyCount",
      "outputs": [
        {
          "internalType": "uint256",
          "name": "",
          "type": "uint256"
        }
      ],
      "stateMutability": "view",
      "type": "function"
    },
    {
      "inputs": [
        {
          "internalType": "uint256",
          "name": "index",
          "type": "uint256"
        }
      ],
      "name": "history",
      "outputs": [
        {
          "components": [
            {
              "internalType": "uint256",
              "name": "tokenId",
              "type": "uint256"
            },
            {
              "internalType": "uint256",
              "name": "end_at",
              "type": "uint256"
            },
            {
              "internalType": "bool",
              "name": "closed",
              "type": "bool"
            },
            {
              "internalType": "address[]",
              "name": "bidders",
              "type": "address[]"
            },
            {
              "internalType": "uint256[]",
              "name": "bids",
              "type": "uint256[]"
            }
          ],
          "internalType": "struct RarinonAuction.Round",
          "name": "",
          "type": "tuple"
        }
      ],
      "stateMutability": "view",
      "type": "function"
    },
    {
      "inputs": [
        {
          "internalType": "uint256",
          "name": "tokenId",
          "type": "uint256"
        }
      ],
      "name": "createRound",
      "outputs": [],
      "stateMutability": "nonpayable",
      "type": "function"
    },
    {
      "inputs": [],
      "name": "createBid",
      "outputs": [],
      "stateMutability": "payable",
      "type": "function"
    },
    {
      "inputs": [],
      "name": "canClose",
      "outputs": [
        {
          "internalType": "bool",
          "name": "",
          "type": "bool"
        }
      ],
      "stateMutability": "view",
      "type": "function"
    },
    {
      "inputs": [],
      "name": "close",
      "outputs": [],
      "stateMutability": "nonpayable",
      "type": "function"
    }
  ],
  "bytecode": "0x60806040523480156200001157600080fd5b50604051620015d0380380620015d083398181016040528101906200003791906200016d565b826000806101000a81548173ffffffffffffffffffffffffffffffffffffffff021916908373ffffffffffffffffffffffffffffffffffffffff16021790555081600160006101000a81548173ffffffffffffffffffffffffffffffffffffffff021916908373ffffffffffffffffffffffffffffffffffffffff16021790555080600281905550505050620001c9565b600080fd5b600073ffffffffffffffffffffffffffffffffffffffff82169050919050565b6000620000fa82620000cd565b9050919050565b6200010c81620000ed565b81146200011857600080fd5b50565b6000815190506200012c8162000101565b92915050565b6000819050919050565b620001478162000132565b81146200015357600080fd5b50565b60008151905062000167816200013c565b92915050565b600080600060608486031215620001895762000188620000c8565b5b600062000199868287016200011b565b9350506020620001ac868287016200011b565b9250506040620001bf8682870162000156565b9150509250925092565b6113f780620001d96000396000f3fe6080604052600436106100595760003560e01c80633a9c9ffc146100655780633da1bba11461009057806343d726d6146100b957806383624074146100d0578063a7a38f0b146100da578063f7049d781461011757610060565b3661006057005b600080fd5b34801561007157600080fd5b5061007a610142565b6040516100879190610cb4565b60405180910390f35b34801561009c57600080fd5b506100b760048036038101906100b29190610d00565b61014f565b005b3480156100c557600080fd5b506100ce6103c9565b005b6100d861065b565b005b3480156100e657600080fd5b5061010160048036038101906100fc9190610d00565b6108b1565b60405161010e9190610f73565b60405180910390f35b34801561012357600080fd5b5061012c610a02565b6040516101399190610fa4565b60405180910390f35b6000600380549050905090565b600060038054905014806101a35750600360016003805490506101729190610fee565b8154811061018357610182611022565b5b906000526020600020906005020160020160009054906101000a900460ff165b6101e2576040517f08c379a00000000000000000000000000000000000000000000000000000000081526004016101d9906110ae565b60405180910390fd5b3073ffffffffffffffffffffffffffffffffffffffff1660008054906101000a900473ffffffffffffffffffffffffffffffffffffffff1673ffffffffffffffffffffffffffffffffffffffff16636352211e836040518263ffffffff1660e01b81526004016102529190610cb4565b602060405180830381865afa15801561026f573d6000803e3d6000fd5b505050506040513d601f19601f8201168201806040525081019061029391906110fa565b73ffffffffffffffffffffffffffffffffffffffff16146102e9576040517f08c379a00000000000000000000000000000000000000000000000000000000081526004016102e090611173565b60405180910390fd5b60608060006040518060a001604052808581526020016002544261030d9190611193565b81526020016000151581526020018481526020018381525090506003819080600181540180825580915050600190039060005260206000209060050201600090919091909150600082015181600001556020820151816001015560408201518160020160006101000a81548160ff02191690831515021790555060608201518160030190805190602001906103a3929190610b76565b5060808201518160040190805190602001906103c0929190610c00565b50505050505050565b6103d1610a02565b610410576040517f08c379a000000000000000000000000000000000000000000000000000000000815260040161040790611235565b60405180910390fd5b6000600360016003805490506104269190610fee565b8154811061043757610436611022565b5b9060005260206000209060050201905060018160020160006101000a81548160ff0219169083151502179055506000816003018054905011156105c85760008054906101000a900473ffffffffffffffffffffffffffffffffffffffff1673ffffffffffffffffffffffffffffffffffffffff166342842e0e3083600301600185600301805490506104c99190610fee565b815481106104da576104d9611022565b5b9060005260206000200160009054906101000a900473ffffffffffffffffffffffffffffffffffffffff1684600001546040518463ffffffff1660e01b815260040161052893929190611264565b600060405180830381600087803b15801561054257600080fd5b505af1158015610556573d6000803e3d6000fd5b50505050600160009054906101000a900473ffffffffffffffffffffffffffffffffffffffff1673ffffffffffffffffffffffffffffffffffffffff166108fc479081150290604051600060405180830381858888f193505050501580156105c2573d6000803e3d6000fd5b50610658565b60008054906101000a900473ffffffffffffffffffffffffffffffffffffffff1673ffffffffffffffffffffffffffffffffffffffff166342966c6882600001546040518263ffffffff1660e01b81526004016106259190610cb4565b600060405180830381600087803b15801561063f57600080fd5b505af1158015610653573d6000803e3d6000fd5b505050505b50565b6000600360016003805490506106719190610fee565b8154811061068257610681611022565b5b906000526020600020906005020190506000808260040180549050116106a95760006106de565b81600401600183600401805490506106c19190610fee565b815481106106d2576106d1611022565b5b90600052602060002001545b90506000600a600d836106f1919061129b565b6106fb9190611324565b905080341161073f576040517f08c379a0000000000000000000000000000000000000000000000000000000008152600401610736906113a1565b60405180910390fd5b82600301339080600181540180825580915050600190039060005260206000200160009091909190916101000a81548173ffffffffffffffffffffffffffffffffffffffff021916908373ffffffffffffffffffffffffffffffffffffffff160217905550826004013490806001815401808255809150506001900390600052602060002001600090919091909150556001836003018054905011156108ac57600083600401805490509050836003016002826107fc9190610fee565b8154811061080d5761080c611022565b5b9060005260206000200160009054906101000a900473ffffffffffffffffffffffffffffffffffffffff1673ffffffffffffffffffffffffffffffffffffffff166108fc856004016002846108629190610fee565b8154811061087357610872611022565b5b90600052602060002001549081150290604051600060405180830381858888f193505050501580156108a9573d6000803e3d6000fd5b50505b505050565b6108b9610c4d565b600382815481106108cd576108cc611022565b5b90600052602060002090600502016040518060a001604052908160008201548152602001600182015481526020016002820160009054906101000a900460ff161515151581526020016003820180548060200260200160405190810160405280929190818152602001828054801561099a57602002820191906000526020600020905b8160009054906101000a900473ffffffffffffffffffffffffffffffffffffffff1673ffffffffffffffffffffffffffffffffffffffff1681526020019060010190808311610950575b50505050508152602001600482018054806020026020016040519081016040528092919081815260200182805480156109f257602002820191906000526020600020905b8154815260200190600101908083116109de575b5050505050815250509050919050565b60008060036001600380549050610a199190610fee565b81548110610a2a57610a29611022565b5b90600052602060002090600502016040518060a001604052908160008201548152602001600182015481526020016002820160009054906101000a900460ff1615151515815260200160038201805480602002602001604051908101604052809291908181526020018280548015610af757602002820191906000526020600020905b8160009054906101000a900473ffffffffffffffffffffffffffffffffffffffff1673ffffffffffffffffffffffffffffffffffffffff1681526020019060010190808311610aad575b5050505050815260200160048201805480602002602001604051908101604052809291908181526020018280548015610b4f57602002820191906000526020600020905b815481526020019060010190808311610b3b575b50505050508152505090508060400151158015610b70575080602001514210155b91505090565b828054828255906000526020600020908101928215610bef579160200282015b82811115610bee5782518260006101000a81548173ffffffffffffffffffffffffffffffffffffffff021916908373ffffffffffffffffffffffffffffffffffffffff16021790555091602001919060010190610b96565b5b509050610bfc9190610c7e565b5090565b828054828255906000526020600020908101928215610c3c579160200282015b82811115610c3b578251825591602001919060010190610c20565b5b509050610c499190610c7e565b5090565b6040518060a00160405280600081526020016000815260200160001515815260200160608152602001606081525090565b5b80821115610c97576000816000905550600101610c7f565b5090565b6000819050919050565b610cae81610c9b565b82525050565b6000602082019050610cc96000830184610ca5565b92915050565b600080fd5b610cdd81610c9b565b8114610ce857600080fd5b50565b600081359050610cfa81610cd4565b92915050565b600060208284031215610d1657610d15610ccf565b5b6000610d2484828501610ceb565b91505092915050565b610d3681610c9b565b82525050565b60008115159050919050565b610d5181610d3c565b82525050565b600081519050919050565b600082825260208201905092915050565b6000819050602082019050919050565b600073ffffffffffffffffffffffffffffffffffffffff82169050919050565b6000610dae82610d83565b9050919050565b610dbe81610da3565b82525050565b6000610dd08383610db5565b60208301905092915050565b6000602082019050919050565b6000610df482610d57565b610dfe8185610d62565b9350610e0983610d73565b8060005b83811015610e3a578151610e218882610dc4565b9750610e2c83610ddc565b925050600181019050610e0d565b5085935050505092915050565b600081519050919050565b600082825260208201905092915050565b6000819050602082019050919050565b6000610e7f8383610d2d565b60208301905092915050565b6000602082019050919050565b6000610ea382610e47565b610ead8185610e52565b9350610eb883610e63565b8060005b83811015610ee9578151610ed08882610e73565b9750610edb83610e8b565b925050600181019050610ebc565b5085935050505092915050565b600060a083016000830151610f0e6000860182610d2d565b506020830151610f216020860182610d2d565b506040830151610f346040860182610d48565b5060608301518482036060860152610f4c8282610de9565b91505060808301518482036080860152610f668282610e98565b9150508091505092915050565b60006020820190508181036000830152610f8d8184610ef6565b905092915050565b610f9e81610d3c565b82525050565b6000602082019050610fb96000830184610f95565b92915050565b7f4e487b7100000000000000000000000000000000000000000000000000000000600052601160045260246000fd5b6000610ff982610c9b565b915061100483610c9b565b92508282101561101757611016610fbf565b5b828203905092915050565b7f4e487b7100000000000000000000000000000000000000000000000000000000600052603260045260246000fd5b600082825260208201905092915050565b7f41756374696f6e20696e2070726f677265737300000000000000000000000000600082015250565b6000611098601383611051565b91506110a382611062565b602082019050919050565b600060208201905081810360008301526110c78161108b565b9050919050565b6110d781610da3565b81146110e257600080fd5b50565b6000815190506110f4816110ce565b92915050565b6000602082840312156111105761110f610ccf565b5b600061111e848285016110e5565b91505092915050565b7f4e6f74206d7920746f6b656e0000000000000000000000000000000000000000600082015250565b600061115d600c83611051565b915061116882611127565b602082019050919050565b6000602082019050818103600083015261118c81611150565b9050919050565b600061119e82610c9b565b91506111a983610c9b565b9250827fffffffffffffffffffffffffffffffffffffffffffffffffffffffffffffffff038211156111de576111dd610fbf565b5b828201905092915050565b7f43616e206e6f7420636c6f73652061756374696f6e206e6f772e000000000000600082015250565b600061121f601a83611051565b915061122a826111e9565b602082019050919050565b6000602082019050818103600083015261124e81611212565b9050919050565b61125e81610da3565b82525050565b60006060820190506112796000830186611255565b6112866020830185611255565b6112936040830184610ca5565b949350505050565b60006112a682610c9b565b91506112b183610c9b565b9250817fffffffffffffffffffffffffffffffffffffffffffffffffffffffffffffffff04831182151516156112ea576112e9610fbf565b5b828202905092915050565b7f4e487b7100000000000000000000000000000000000000000000000000000000600052601260045260246000fd5b600061132f82610c9b565b915061133a83610c9b565b92508261134a576113496112f5565b5b828204905092915050565b7f42696420697320746f6f206c6f772e0000000000000000000000000000000000600082015250565b600061138b600f83611051565b915061139682611355565b602082019050919050565b600060208201905081810360008301526113ba8161137e565b905091905056fea264697066735822122023895f66f923a3f8bc9f8a6f0687e0be50233eb28156aebe4d046c216daf992164736f6c634300080a0033",
  "immutableReferences": {},
  "source": "// SPDX-License-Identifier: MIT\r\npragma solidity 0.8.10;\r\n\r\n//         .\r\n//    NFT .\r\n\r\ninterface IERC721 {\r\n    /**\r\n     * @dev Returns the number of tokens in ``owner``'s account.\r\n     */\r\n    function balanceOf(address owner) external view returns (uint256 balance);\r\n\r\n    /**\r\n     * @dev See {IERC721-safeTransferFrom}.\r\n     */\r\n    function safeTransferFrom(address from, address to, uint256 tokenId) external;\r\n\r\n    /**\r\n     * @dev See {IERC721-ownerOf}.\r\n     */\r\n    function ownerOf(uint256 tokenId) external view returns (address);\r\n\r\n    /**\r\n     * @dev Destroys `tokenId`.\r\n     * The approval is cleared when the token is burned.\r\n     *\r\n     * Requirements:\r\n     *\r\n     * - `tokenId` must exist.\r\n     *\r\n     * Emits a {Transfer} event.\r\n     */\r\n    function burn(uint256 tokenId) external;\r\n}\r\n\r\ncontract RarinonAuction {\r\n    struct Round{\r\n        uint256 tokenId;\r\n        uint256 end_at;\r\n        bool closed;\r\n        address[] bidders;\r\n        uint256[] bids;\r\n    }\r\n\r\n    IERC721 nft;  // Base NFT token for DAO voting.\r\n    address dao;\r\n    uint256 round_sec; // Round length in seconds.\r\n\r\n    Round[] _history;\r\n\r\n    function historyCount() public view returns (uint256){\r\n        return _history.length;\r\n    }\r\n\r\n    function history(uint256 index) public view returns (Round memory){\r\n        return _history[index];\r\n    }\r\n\r\n\r\n    constructor(address nft_, address dao_, uint256 round_sec_) {\r\n        nft = IERC721(nft_);\r\n        dao = dao_;\r\n        round_sec = round_sec_;\r\n    }\r\n\r\n    function createRound(uint256 tokenId) public {\r\n        require(_history.length == 0 || _history[_history.length - 1].closed, \"Auction in progress\");\r\n        require(nft.ownerOf(tokenId) == address(this), \"Not my token\");\r\n\r\n        address[] memory bidders;\r\n        uint256[] memory bids;\r\n        Round memory round = Round(tokenId, block.timestamp + round_sec, false, bidders, bids);\r\n        _history.push(round);\r\n    }\r\n\r\n    function createBid() payable public {\r\n        Round storage round = _history[_history.length - 1];\r\n        uint256 currentBid = round.bids.length > 0 ? round.bids[round.bids.length - 1] : 0;\r\n        uint256 nextBid = currentBid * 13 / 10;\r\n        require(msg.value > nextBid, \"Bid is too low.\");\r\n        \r\n        round.bidders.push(msg.sender);\r\n        round.bids.push(msg.value);\r\n\r\n        // If there was another bidder, send him back his bid.\r\n        if (round.bidders.length > 1){\r\n            uint256 index = round.bids.length;\r\n            payable(round.bidders[index - 2]).transfer(round.bids[index - 2]);\r\n        }\r\n    }\r\n\r\n    function canClose() public view returns (bool){\r\n        Round memory round = _history[_history.length - 1];\r\n\r\n        return !round.closed && block.timestamp >= round.end_at;        \r\n    }\r\n\r\n    function close() public {\r\n        require(canClose(), \"Can not close auction now.\");\r\n        Round storage round = _history[_history.length - 1];\r\n\r\n        round.closed = true;\r\n\r\n        // Has winner. Transfer token him. Transfer all money to dao.\r\n        if (round.bidders.length > 0){\r\n            nft.safeTransferFrom(address(this), round.bidders[round.bidders.length - 1], round.tokenId);\r\n            payable(dao).transfer(address(this).balance);\r\n        }\r\n        // No winners. Just burn token.\r\n        else\r\n        {\r\n            nft.burn(round.tokenId);\r\n        }\r\n    }    \r\n\r\n    // @notice Will receive any eth sent to the contract\r\n    receive() external payable {}\r\n}\r\n",
  "sourcePath": "D:\\dev\\bia\\git\\nftdaofond\\truffle\\contracts\\RarinonAuction.sol",
  "compiler": {
    "name": "solc",
    "version": "0.8.10+commit.fc410830.Emscripten.clang"
  },
  "schemaVersion": "3.4.3",
  "updatedAt": "2021-12-14T08:23:33.464Z",
  "devdoc": {
    "kind": "dev",
    "methods": {},
    "version": 1
  },
  "userdoc": {
    "kind": "user",
    "methods": {},
    "version": 1
  }
}