{
  "contractName": "RarinonDAO",
  "abi": [
    {
      "inputs": [
        {
          "internalType": "address",
          "name": "nft",
          "type": "address"
        },
        {
          "internalType": "uint256",
          "name": "vote_period_",
          "type": "uint256"
        },
        {
          "internalType": "uint32",
          "name": "quorum_",
          "type": "uint32"
        },
        {
          "internalType": "address[]",
          "name": "keepers",
          "type": "address[]"
        }
      ],
      "stateMutability": "nonpayable",
      "type": "constructor"
    },
    {
      "anonymous": false,
      "inputs": [
        {
          "indexed": true,
          "internalType": "uint256",
          "name": "vote_id",
          "type": "uint256"
        },
        {
          "indexed": true,
          "internalType": "bool",
          "name": "approved",
          "type": "bool"
        }
      ],
      "name": "Close",
      "type": "event"
    },
    {
      "anonymous": false,
      "inputs": [
        {
          "indexed": true,
          "internalType": "uint256",
          "name": "vote_id",
          "type": "uint256"
        },
        {
          "indexed": true,
          "internalType": "address",
          "name": "author",
          "type": "address"
        }
      ],
      "name": "Open",
      "type": "event"
    },
    {
      "anonymous": false,
      "inputs": [
        {
          "indexed": true,
          "internalType": "address",
          "name": "previousOwner",
          "type": "address"
        },
        {
          "indexed": true,
          "internalType": "address",
          "name": "newOwner",
          "type": "address"
        }
      ],
      "name": "OwnershipTransferred",
      "type": "event"
    },
    {
      "anonymous": false,
      "inputs": [
        {
          "indexed": true,
          "internalType": "uint256",
          "name": "vote_id",
          "type": "uint256"
        },
        {
          "indexed": true,
          "internalType": "address",
          "name": "voter",
          "type": "address"
        },
        {
          "indexed": true,
          "internalType": "bool",
          "name": "yes",
          "type": "bool"
        }
      ],
      "name": "Vote",
      "type": "event"
    },
    {
      "inputs": [],
      "name": "owner",
      "outputs": [
        {
          "internalType": "address",
          "name": "",
          "type": "address"
        }
      ],
      "stateMutability": "view",
      "type": "function"
    },
    {
      "inputs": [],
      "name": "quorum",
      "outputs": [
        {
          "internalType": "uint32",
          "name": "",
          "type": "uint32"
        }
      ],
      "stateMutability": "view",
      "type": "function"
    },
    {
      "inputs": [],
      "name": "renounceOwnership",
      "outputs": [],
      "stateMutability": "nonpayable",
      "type": "function"
    },
    {
      "inputs": [
        {
          "internalType": "address",
          "name": "newOwner",
          "type": "address"
        }
      ],
      "name": "transferOwnership",
      "outputs": [],
      "stateMutability": "nonpayable",
      "type": "function"
    },
    {
      "inputs": [],
      "name": "vote_period",
      "outputs": [
        {
          "internalType": "uint256",
          "name": "",
          "type": "uint256"
        }
      ],
      "stateMutability": "view",
      "type": "function"
    },
    {
      "stateMutability": "payable",
      "type": "receive"
    },
    {
      "inputs": [
        {
          "internalType": "address",
          "name": "adr",
          "type": "address"
        }
      ],
      "name": "is_keeper",
      "outputs": [
        {
          "internalType": "bool",
          "name": "",
          "type": "bool"
        }
      ],
      "stateMutability": "view",
      "type": "function"
    },
    {
      "inputs": [],
      "name": "historyCount",
      "outputs": [
        {
          "internalType": "uint256",
          "name": "",
          "type": "uint256"
        }
      ],
      "stateMutability": "view",
      "type": "function"
    },
    {
      "inputs": [
        {
          "internalType": "uint256",
          "name": "index",
          "type": "uint256"
        }
      ],
      "name": "history",
      "outputs": [
        {
          "components": [
            {
              "internalType": "address",
              "name": "account",
              "type": "address"
            },
            {
              "internalType": "uint256",
              "name": "amount",
              "type": "uint256"
            },
            {
              "internalType": "string",
              "name": "title",
              "type": "string"
            },
            {
              "internalType": "string",
              "name": "url",
              "type": "string"
            },
            {
              "internalType": "address[]",
              "name": "voters",
              "type": "address[]"
            },
            {
              "internalType": "uint32",
              "name": "nyes",
              "type": "uint32"
            },
            {
              "internalType": "uint32",
              "name": "nno",
              "type": "uint32"
            },
            {
              "internalType": "uint256",
              "name": "end_at",
              "type": "uint256"
            },
            {
              "internalType": "bool",
              "name": "closed",
              "type": "bool"
            },
            {
              "internalType": "bool",
              "name": "approved",
              "type": "bool"
            }
          ],
          "internalType": "struct RarinonDAO.Proposal",
          "name": "",
          "type": "tuple"
        }
      ],
      "stateMutability": "view",
      "type": "function"
    },
    {
      "inputs": [
        {
          "internalType": "uint256",
          "name": "vote_period_",
          "type": "uint256"
        }
      ],
      "name": "set_vote_period",
      "outputs": [],
      "stateMutability": "nonpayable",
      "type": "function"
    },
    {
      "inputs": [
        {
          "internalType": "uint32",
          "name": "quorum_",
          "type": "uint32"
        }
      ],
      "name": "set_quorum",
      "outputs": [],
      "stateMutability": "nonpayable",
      "type": "function"
    },
    {
      "inputs": [
        {
          "internalType": "address",
          "name": "voter",
          "type": "address"
        },
        {
          "internalType": "uint256",
          "name": "vote_id",
          "type": "uint256"
        }
      ],
      "name": "didVote",
      "outputs": [
        {
          "internalType": "bool",
          "name": "",
          "type": "bool"
        }
      ],
      "stateMutability": "view",
      "type": "function"
    },
    {
      "inputs": [
        {
          "internalType": "address",
          "name": "account",
          "type": "address"
        },
        {
          "internalType": "uint256",
          "name": "amount",
          "type": "uint256"
        },
        {
          "internalType": "string",
          "name": "title",
          "type": "string"
        },
        {
          "internalType": "string",
          "name": "url",
          "type": "string"
        }
      ],
      "name": "addProposal",
      "outputs": [],
      "stateMutability": "nonpayable",
      "type": "function"
    },
    {
      "inputs": [
        {
          "internalType": "uint256",
          "name": "vote_id",
          "type": "uint256"
        },
        {
          "internalType": "bool",
          "name": "yes",
          "type": "bool"
        }
      ],
      "name": "vote",
      "outputs": [],
      "stateMutability": "nonpayable",
      "type": "function"
    },
    {
      "inputs": [
        {
          "internalType": "uint256",
          "name": "vote_id",
          "type": "uint256"
        }
      ],
      "name": "decline",
      "outputs": [],
      "stateMutability": "nonpayable",
      "type": "function"
    },
    {
      "inputs": [
        {
          "internalType": "uint256",
          "name": "vote_id",
          "type": "uint256"
        }
      ],
      "name": "canClose",
      "outputs": [
        {
          "internalType": "bool",
          "name": "",
          "type": "bool"
        }
      ],
      "stateMutability": "view",
      "type": "function"
    },
    {
      "inputs": [
        {
          "internalType": "uint256",
          "name": "vote_id",
          "type": "uint256"
        }
      ],
      "name": "close",
      "outputs": [],
      "stateMutability": "nonpayable",
      "type": "function"
    }
  ],
  "bytecode": "0x60806040523480156200001157600080fd5b5060405162003b2c38038062003b2c833981810160405281019062000037919062000790565b620000576200004b620002c660201b60201c565b620002ce60201b60201c565b600073ffffffffffffffffffffffffffffffffffffffff168473ffffffffffffffffffffffffffffffffffffffff161415620000ca576040517f08c379a0000000000000000000000000000000000000000000000000000000008152600401620000c19062000882565b60405180910390fd5b620000e0846200039260201b62001b811760201c565b62000122576040517f08c379a00000000000000000000000000000000000000000000000000000000081526004016200011990620008f4565b60405180910390fd5b6000831162000168576040517f08c379a00000000000000000000000000000000000000000000000000000000081526004016200015f9062000966565b60405180910390fd5b60018263ffffffff1611620001b4576040517f08c379a0000000000000000000000000000000000000000000000000000000008152600401620001ab90620009d8565b60405180910390fd5b83600160006101000a81548173ffffffffffffffffffffffffffffffffffffffff021916908373ffffffffffffffffffffffffffffffffffffffff1602179055508260028190555081600360006101000a81548163ffffffff021916908363ffffffff16021790555060005b81518160ff161015620002bb57600160056000848460ff16815181106200024c576200024b620009fa565b5b602002602001015173ffffffffffffffffffffffffffffffffffffffff1673ffffffffffffffffffffffffffffffffffffffff16815260200190815260200160002060006101000a81548160ff0219169083151502179055508080620002b29062000a65565b91505062000220565b505050505062000bf9565b600033905090565b60008060009054906101000a900473ffffffffffffffffffffffffffffffffffffffff169050816000806101000a81548173ffffffffffffffffffffffffffffffffffffffff021916908373ffffffffffffffffffffffffffffffffffffffff1602179055508173ffffffffffffffffffffffffffffffffffffffff168173ffffffffffffffffffffffffffffffffffffffff167f8be0079c531659141344cd1fd0a4f28419497f9722a3daafe3b4186f6b6457e060405160405180910390a35050565b6000620003c6827f01ffc9a700000000000000000000000000000000000000000000000000000000620003f060201b60201c565b8015620003e95750620003e78263ffffffff60e01b620003f060201b60201c565b155b9050919050565b6000806301ffc9a760e01b836040516024016200040e919062000ad1565b604051602081830303815290604052907bffffffffffffffffffffffffffffffffffffffffffffffffffffffff19166020820180517bffffffffffffffffffffffffffffffffffffffffffffffffffffffff838183161783525050505090506000808573ffffffffffffffffffffffffffffffffffffffff16617530846040516200049a919062000b71565b6000604051808303818686fa925050503d8060008114620004d8576040519150601f19603f3d011682016040523d82523d6000602084013e620004dd565b606091505b5091509150602081511015620004fa576000935050505062000520565b8180156200051a57508080602001905181019062000519919062000bc7565b5b93505050505b92915050565b6000604051905090565b600080fd5b600080fd5b600073ffffffffffffffffffffffffffffffffffffffff82169050919050565b600062000567826200053a565b9050919050565b62000579816200055a565b81146200058557600080fd5b50565b60008151905062000599816200056e565b92915050565b6000819050919050565b620005b4816200059f565b8114620005c057600080fd5b50565b600081519050620005d481620005a9565b92915050565b600063ffffffff82169050919050565b620005f581620005da565b81146200060157600080fd5b50565b6000815190506200061581620005ea565b92915050565b600080fd5b6000601f19601f8301169050919050565b7f4e487b7100000000000000000000000000000000000000000000000000000000600052604160045260246000fd5b6200066b8262000620565b810181811067ffffffffffffffff821117156200068d576200068c62000631565b5b80604052505050565b6000620006a262000526565b9050620006b0828262000660565b919050565b600067ffffffffffffffff821115620006d357620006d262000631565b5b602082029050602081019050919050565b600080fd5b600062000700620006fa84620006b5565b62000696565b90508083825260208201905060208402830185811115620007265762000725620006e4565b5b835b818110156200075357806200073e888262000588565b84526020840193505060208101905062000728565b5050509392505050565b600082601f8301126200077557620007746200061b565b5b815162000787848260208601620006e9565b91505092915050565b60008060008060808587031215620007ad57620007ac62000530565b5b6000620007bd8782880162000588565b9450506020620007d087828801620005c3565b9350506040620007e38782880162000604565b925050606085015167ffffffffffffffff81111562000807576200080662000535565b5b62000815878288016200075d565b91505092959194509250565b600082825260208201905092915050565b7f6e66742063616e206e6f74206265203000000000000000000000000000000000600082015250565b60006200086a60108362000821565b9150620008778262000832565b602082019050919050565b600060208201905081810360008301526200089d816200085b565b9050919050565b7f6164647265737320646f6573206e6f7420737570706f72742049455243313635600082015250565b6000620008dc60208362000821565b9150620008e982620008a4565b602082019050919050565b600060208201905081810360008301526200090f81620008cd565b9050919050565b7f766f74655f706572696f645f206d757374206265206772656174686572203000600082015250565b60006200094e601f8362000821565b91506200095b8262000916565b602082019050919050565b6000602082019050818103600083015262000981816200093f565b9050919050565b7f71756f72756d206d757374206265206772656174686572203100000000000000600082015250565b6000620009c060198362000821565b9150620009cd8262000988565b602082019050919050565b60006020820190508181036000830152620009f381620009b1565b9050919050565b7f4e487b7100000000000000000000000000000000000000000000000000000000600052603260045260246000fd5b7f4e487b7100000000000000000000000000000000000000000000000000000000600052601160045260246000fd5b600060ff82169050919050565b600062000a728262000a58565b915060ff82141562000a895762000a8862000a29565b5b600182019050919050565b60007fffffffff0000000000000000000000000000000000000000000000000000000082169050919050565b62000acb8162000a94565b82525050565b600060208201905062000ae8600083018462000ac0565b92915050565b600081519050919050565b600081905092915050565b60005b8381101562000b2457808201518184015260208101905062000b07565b8381111562000b34576000848401525b50505050565b600062000b478262000aee565b62000b53818562000af9565b935062000b6581856020860162000b04565b80840191505092915050565b600062000b7f828462000b3a565b915081905092915050565b60008115159050919050565b62000ba18162000b8a565b811462000bad57600080fd5b50565b60008151905062000bc18162000b96565b92915050565b60006020828403121562000be05762000bdf62000530565b5b600062000bf08482850162000bb0565b91505092915050565b612f238062000c096000396000f3fe6080604052600436106100f65760003560e01c806376740b5b1161008a578063bda088d411610059578063bda088d41461031e578063c9d27afe1461035b578063d3e9a6a114610384578063f2fde38b146103af576100fd565b806376740b5b146102505780638da5cb5b1461028d578063a0355f4e146102b8578063a7a38f0b146102e1576100fd565b8063348bc611116100c6578063348bc611146101a85780633a9c9ffc146101e55780636416915314610210578063715018a614610239576100fd565b8062545821146101025780630aebeb4e1461012b5780630e44c762146101545780631703a0181461017d576100fd565b366100fd57005b600080fd5b34801561010e57600080fd5b5061012960048036038101906101249190612129565b6103d8565b005b34801561013757600080fd5b50610152600480360381019061014d919061218c565b610478565b005b34801561016057600080fd5b5061017b6004803603810190610176919061235d565b61078d565b005b34801561018957600080fd5b50610192610bdb565b60405161019f919061240b565b60405180910390f35b3480156101b457600080fd5b506101cf60048036038101906101ca9190612426565b610bf1565b6040516101dc919061246e565b60405180910390f35b3480156101f157600080fd5b506101fa610c47565b6040516102079190612498565b60405180910390f35b34801561021c57600080fd5b506102376004803603810190610232919061218c565b610c54565b005b34801561024557600080fd5b5061024e610cda565b005b34801561025c57600080fd5b506102776004803603810190610272919061218c565b610d62565b604051610284919061246e565b60405180910390f35b34801561029957600080fd5b506102a26110be565b6040516102af91906124c2565b60405180910390f35b3480156102c457600080fd5b506102df60048036038101906102da919061218c565b6110e7565b005b3480156102ed57600080fd5b506103086004803603810190610303919061218c565b61113d565b6040516103159190612738565b60405180910390f35b34801561032a57600080fd5b506103456004803603810190610340919061275a565b611418565b604051610352919061246e565b60405180910390f35b34801561036757600080fd5b50610382600480360381019061037d91906127c6565b611788565b005b34801561039057600080fd5b50610399611a83565b6040516103a69190612498565b60405180910390f35b3480156103bb57600080fd5b506103d660048036038101906103d19190612426565b611a89565b005b6103e0611bce565b73ffffffffffffffffffffffffffffffffffffffff166103fe6110be565b73ffffffffffffffffffffffffffffffffffffffff1614610454576040517f08c379a000000000000000000000000000000000000000000000000000000000815260040161044b90612863565b60405180910390fd5b80600360006101000a81548163ffffffff021916908363ffffffff16021790555050565b61048181610d62565b61048a57600080fd5b6000600482815481106104a05761049f612883565b5b9060005260206000209060080201604051806101400160405290816000820160009054906101000a900473ffffffffffffffffffffffffffffffffffffffff1673ffffffffffffffffffffffffffffffffffffffff1673ffffffffffffffffffffffffffffffffffffffff1681526020016001820154815260200160028201805461052a906128e1565b80601f0160208091040260200160405190810160405280929190818152602001828054610556906128e1565b80156105a35780601f10610578576101008083540402835291602001916105a3565b820191906000526020600020905b81548152906001019060200180831161058657829003601f168201915b505050505081526020016003820180546105bc906128e1565b80601f01602080910402602001604051908101604052809291908181526020018280546105e8906128e1565b80156106355780601f1061060a57610100808354040283529160200191610635565b820191906000526020600020905b81548152906001019060200180831161061857829003601f168201915b50505050508152602001600482018054806020026020016040519081016040528092919081815260200182805480156106c357602002820191906000526020600020905b8160009054906101000a900473ffffffffffffffffffffffffffffffffffffffff1673ffffffffffffffffffffffffffffffffffffffff1681526020019060010190808311610679575b505050505081526020016005820160009054906101000a900463ffffffff1663ffffffff1663ffffffff1681526020016005820160049054906101000a900463ffffffff1663ffffffff1663ffffffff168152602001600682015481526020016007820160009054906101000a900460ff161515151581526020016007820160019054906101000a900460ff161515151581525050905061078982600360009054906101000a900463ffffffff1663ffffffff168360a0015163ffffffff161015611bd6565b5050565b6000600160009054906101000a900473ffffffffffffffffffffffffffffffffffffffff1673ffffffffffffffffffffffffffffffffffffffff166370a08231336040518263ffffffff1660e01b81526004016107ea91906124c2565b602060405180830381865afa158015610807573d6000803e3d6000fd5b505050506040513d601f19601f8201168201806040525081019061082b9190612928565b1161086b576040517f08c379a0000000000000000000000000000000000000000000000000000000008152600401610862906129c7565b60405180910390fd5b60018060009054906101000a900473ffffffffffffffffffffffffffffffffffffffff1673ffffffffffffffffffffffffffffffffffffffff166370a08231336040518263ffffffff1660e01b81526004016108c791906124c2565b602060405180830381865afa1580156108e4573d6000803e3d6000fd5b505050506040513d601f19601f820116820180604052508101906109089190612928565b11610948576040517f08c379a000000000000000000000000000000000000000000000000000000000815260040161093f90612a59565b60405180910390fd5b8247101561098b576040517f08c379a000000000000000000000000000000000000000000000000000000000815260040161098290612ac5565b60405180910390fd5b606060006040518061014001604052808773ffffffffffffffffffffffffffffffffffffffff168152602001868152602001858152602001848152602001838152602001600063ffffffff168152602001600063ffffffff168152602001600254426109f79190612b14565b8152602001600015158152602001600015158152509050600481908060018154018082558091505060019003906000526020600020906008020160009091909190915060008201518160000160006101000a81548173ffffffffffffffffffffffffffffffffffffffff021916908373ffffffffffffffffffffffffffffffffffffffff160217905550602082015181600101556040820151816002019080519060200190610aa7929190611f33565b506060820151816003019080519060200190610ac4929190611f33565b506080820151816004019080519060200190610ae1929190611fb9565b5060a08201518160050160006101000a81548163ffffffff021916908363ffffffff16021790555060c08201518160050160046101000a81548163ffffffff021916908363ffffffff16021790555060e082015181600601556101008201518160070160006101000a81548160ff0219169083151502179055506101208201518160070160016101000a81548160ff02191690831515021790555050503373ffffffffffffffffffffffffffffffffffffffff166001600480549050610ba79190612b6a565b7fdbc5050156cd19b6070cf1e2fe9ff89f0d839c06c9017885490c868465d94edd60405160405180910390a3505050505050565b600360009054906101000a900463ffffffff1681565b6000600560008373ffffffffffffffffffffffffffffffffffffffff1673ffffffffffffffffffffffffffffffffffffffff16815260200190815260200160002060009054906101000a900460ff169050919050565b6000600480549050905090565b610c5c611bce565b73ffffffffffffffffffffffffffffffffffffffff16610c7a6110be565b73ffffffffffffffffffffffffffffffffffffffff1614610cd0576040517f08c379a0000000000000000000000000000000000000000000000000000000008152600401610cc790612863565b60405180910390fd5b8060028190555050565b610ce2611bce565b73ffffffffffffffffffffffffffffffffffffffff16610d006110be565b73ffffffffffffffffffffffffffffffffffffffff1614610d56576040517f08c379a0000000000000000000000000000000000000000000000000000000008152600401610d4d90612863565b60405180910390fd5b610d606000611d44565b565b60006004805490508210610d7557600080fd5b600060048381548110610d8b57610d8a612883565b5b9060005260206000209060080201604051806101400160405290816000820160009054906101000a900473ffffffffffffffffffffffffffffffffffffffff1673ffffffffffffffffffffffffffffffffffffffff1673ffffffffffffffffffffffffffffffffffffffff16815260200160018201548152602001600282018054610e15906128e1565b80601f0160208091040260200160405190810160405280929190818152602001828054610e41906128e1565b8015610e8e5780601f10610e6357610100808354040283529160200191610e8e565b820191906000526020600020905b815481529060010190602001808311610e7157829003601f168201915b50505050508152602001600382018054610ea7906128e1565b80601f0160208091040260200160405190810160405280929190818152602001828054610ed3906128e1565b8015610f205780601f10610ef557610100808354040283529160200191610f20565b820191906000526020600020905b815481529060010190602001808311610f0357829003601f168201915b5050505050815260200160048201805480602002602001604051908101604052809291908181526020018280548015610fae57602002820191906000526020600020905b8160009054906101000a900473ffffffffffffffffffffffffffffffffffffffff1673ffffffffffffffffffffffffffffffffffffffff1681526020019060010190808311610f64575b505050505081526020016005820160009054906101000a900463ffffffff1663ffffffff1663ffffffff1681526020016005820160049054906101000a900463ffffffff1663ffffffff1663ffffffff168152602001600682015481526020016007820160009054906101000a900460ff161515151581526020016007820160019054906101000a900460ff16151515158152505090508061010001511580156110b65750600360009054906101000a900463ffffffff1663ffffffff168160a0015163ffffffff161015806110a65750600360009054906101000a900463ffffffff1663ffffffff168160c0015163ffffffff1610155b806110b557508060e001514210155b5b915050919050565b60008060009054906101000a900473ffffffffffffffffffffffffffffffffffffffff16905090565b6110f033610bf1565b61112f576040517f08c379a000000000000000000000000000000000000000000000000000000000815260040161112690612bea565b60405180910390fd5b61113a816000611bd6565b50565b611145612043565b6004828154811061115957611158612883565b5b9060005260206000209060080201604051806101400160405290816000820160009054906101000a900473ffffffffffffffffffffffffffffffffffffffff1673ffffffffffffffffffffffffffffffffffffffff1673ffffffffffffffffffffffffffffffffffffffff168152602001600182015481526020016002820180546111e3906128e1565b80601f016020809104026020016040519081016040528092919081815260200182805461120f906128e1565b801561125c5780601f106112315761010080835404028352916020019161125c565b820191906000526020600020905b81548152906001019060200180831161123f57829003601f168201915b50505050508152602001600382018054611275906128e1565b80601f01602080910402602001604051908101604052809291908181526020018280546112a1906128e1565b80156112ee5780601f106112c3576101008083540402835291602001916112ee565b820191906000526020600020905b8154815290600101906020018083116112d157829003601f168201915b505050505081526020016004820180548060200260200160405190810160405280929190818152602001828054801561137c57602002820191906000526020600020905b8160009054906101000a900473ffffffffffffffffffffffffffffffffffffffff1673ffffffffffffffffffffffffffffffffffffffff1681526020019060010190808311611332575b505050505081526020016005820160009054906101000a900463ffffffff1663ffffffff1663ffffffff1681526020016005820160049054906101000a900463ffffffff1663ffffffff1663ffffffff168152602001600682015481526020016007820160009054906101000a900460ff161515151581526020016007820160019054906101000a900460ff1615151515815250509050919050565b6000600480549050821061142b57600080fd5b60006004838154811061144157611440612883565b5b9060005260206000209060080201604051806101400160405290816000820160009054906101000a900473ffffffffffffffffffffffffffffffffffffffff1673ffffffffffffffffffffffffffffffffffffffff1673ffffffffffffffffffffffffffffffffffffffff168152602001600182015481526020016002820180546114cb906128e1565b80601f01602080910402602001604051908101604052809291908181526020018280546114f7906128e1565b80156115445780601f1061151957610100808354040283529160200191611544565b820191906000526020600020905b81548152906001019060200180831161152757829003601f168201915b5050505050815260200160038201805461155d906128e1565b80601f0160208091040260200160405190810160405280929190818152602001828054611589906128e1565b80156115d65780601f106115ab576101008083540402835291602001916115d6565b820191906000526020600020905b8154815290600101906020018083116115b957829003601f168201915b505050505081526020016004820180548060200260200160405190810160405280929190818152602001828054801561166457602002820191906000526020600020905b8160009054906101000a900473ffffffffffffffffffffffffffffffffffffffff1673ffffffffffffffffffffffffffffffffffffffff168152602001906001019080831161161a575b505050505081526020016005820160009054906101000a900463ffffffff1663ffffffff1663ffffffff1681526020016005820160049054906101000a900463ffffffff1663ffffffff1663ffffffff168152602001600682015481526020016007820160009054906101000a900460ff161515151581526020016007820160019054906101000a900460ff161515151581525050905060005b81608001515181101561177b578473ffffffffffffffffffffffffffffffffffffffff168260800151828151811061173957611738612883565b5b602002602001015173ffffffffffffffffffffffffffffffffffffffff16141561176857600192505050611782565b808061177390612c0a565b9150506116fe565b5060009150505b92915050565b6000600160009054906101000a900473ffffffffffffffffffffffffffffffffffffffff1673ffffffffffffffffffffffffffffffffffffffff166370a08231336040518263ffffffff1660e01b81526004016117e591906124c2565b602060405180830381865afa158015611802573d6000803e3d6000fd5b505050506040513d601f19601f820116820180604052508101906118269190612928565b11611866576040517f08c379a000000000000000000000000000000000000000000000000000000000815260040161185d906129c7565b60405180910390fd5b6118703383611418565b156118b0576040517f08c379a00000000000000000000000000000000000000000000000000000000081526004016118a790612c9f565b60405180910390fd5b6000600483815481106118c6576118c5612883565b5b906000526020600020906008020190508060070160009054906101000a900460ff1615611928576040517f08c379a000000000000000000000000000000000000000000000000000000000815260040161191f90612d0b565b60405180910390fd5b80600401339080600181540180825580915050600190039060005260206000200160009091909190916101000a81548173ffffffffffffffffffffffffffffffffffffffff021916908373ffffffffffffffffffffffffffffffffffffffff16021790555081156119db5760018160050160009054906101000a900463ffffffff166119b49190612d2b565b8160050160006101000a81548163ffffffff021916908363ffffffff160217905550611a1f565b60018160050160049054906101000a900463ffffffff166119fc9190612d2b565b8160050160046101000a81548163ffffffff021916908363ffffffff1602179055505b8115153373ffffffffffffffffffffffffffffffffffffffff16847fcfa82ef0390c8f3e57ebe6c0665352a383667e792af012d350d9786ee5173d2660405160405180910390a4611a6f83610d62565b15611a7e57611a7d83610478565b5b505050565b60025481565b611a91611bce565b73ffffffffffffffffffffffffffffffffffffffff16611aaf6110be565b73ffffffffffffffffffffffffffffffffffffffff1614611b05576040517f08c379a0000000000000000000000000000000000000000000000000000000008152600401611afc90612863565b60405180910390fd5b600073ffffffffffffffffffffffffffffffffffffffff168173ffffffffffffffffffffffffffffffffffffffff161415611b75576040517f08c379a0000000000000000000000000000000000000000000000000000000008152600401611b6c90612dd7565b60405180910390fd5b611b7e81611d44565b50565b6000611bad827f01ffc9a700000000000000000000000000000000000000000000000000000000611e08565b8015611bc75750611bc58263ffffffff60e01b611e08565b155b9050919050565b600033905090565b600060048381548110611bec57611beb612883565b5b906000526020600020906008020190508060070160009054906101000a900460ff1615611c4e576040517f08c379a0000000000000000000000000000000000000000000000000000000008152600401611c4590612d0b565b60405180910390fd5b60018160070160006101000a81548160ff0219169083151502179055508115611cfe5760018160070160016101000a81548160ff0219169083151502179055508060000160009054906101000a900473ffffffffffffffffffffffffffffffffffffffff1673ffffffffffffffffffffffffffffffffffffffff166108fc82600101549081150290604051600060405180830381858888f19350505050158015611cfc573d6000803e3d6000fd5b505b8060070160019054906101000a900460ff161515837f1d106ce810fcb778ff7c4738e62f58ec5bb69afe277678b61589bcea0633bdac60405160405180910390a3505050565b60008060009054906101000a900473ffffffffffffffffffffffffffffffffffffffff169050816000806101000a81548173ffffffffffffffffffffffffffffffffffffffff021916908373ffffffffffffffffffffffffffffffffffffffff1602179055508173ffffffffffffffffffffffffffffffffffffffff168173ffffffffffffffffffffffffffffffffffffffff167f8be0079c531659141344cd1fd0a4f28419497f9722a3daafe3b4186f6b6457e060405160405180910390a35050565b6000806301ffc9a760e01b83604051602401611e249190612e32565b604051602081830303815290604052907bffffffffffffffffffffffffffffffffffffffffffffffffffffffff19166020820180517bffffffffffffffffffffffffffffffffffffffffffffffffffffffff838183161783525050505090506000808573ffffffffffffffffffffffffffffffffffffffff1661753084604051611eae9190612e94565b6000604051808303818686fa925050503d8060008114611eea576040519150601f19603f3d011682016040523d82523d6000602084013e611eef565b606091505b5091509150602081511015611f0a5760009350505050611f2d565b818015611f27575080806020019051810190611f269190612ec0565b5b93505050505b92915050565b828054611f3f906128e1565b90600052602060002090601f016020900481019282611f615760008555611fa8565b82601f10611f7a57805160ff1916838001178555611fa8565b82800160010185558215611fa8579182015b82811115611fa7578251825591602001919060010190611f8c565b5b509050611fb591906120bc565b5090565b828054828255906000526020600020908101928215612032579160200282015b828111156120315782518260006101000a81548173ffffffffffffffffffffffffffffffffffffffff021916908373ffffffffffffffffffffffffffffffffffffffff16021790555091602001919060010190611fd9565b5b50905061203f91906120bc565b5090565b604051806101400160405280600073ffffffffffffffffffffffffffffffffffffffff16815260200160008152602001606081526020016060815260200160608152602001600063ffffffff168152602001600063ffffffff168152602001600081526020016000151581526020016000151581525090565b5b808211156120d55760008160009055506001016120bd565b5090565b6000604051905090565b600080fd5b600080fd5b600063ffffffff82169050919050565b612106816120ed565b811461211157600080fd5b50565b600081359050612123816120fd565b92915050565b60006020828403121561213f5761213e6120e3565b5b600061214d84828501612114565b91505092915050565b6000819050919050565b61216981612156565b811461217457600080fd5b50565b60008135905061218681612160565b92915050565b6000602082840312156121a2576121a16120e3565b5b60006121b084828501612177565b91505092915050565b600073ffffffffffffffffffffffffffffffffffffffff82169050919050565b60006121e4826121b9565b9050919050565b6121f4816121d9565b81146121ff57600080fd5b50565b600081359050612211816121eb565b92915050565b600080fd5b600080fd5b6000601f19601f8301169050919050565b7f4e487b7100000000000000000000000000000000000000000000000000000000600052604160045260246000fd5b61226a82612221565b810181811067ffffffffffffffff8211171561228957612288612232565b5b80604052505050565b600061229c6120d9565b90506122a88282612261565b919050565b600067ffffffffffffffff8211156122c8576122c7612232565b5b6122d182612221565b9050602081019050919050565b82818337600083830152505050565b60006123006122fb846122ad565b612292565b90508281526020810184848401111561231c5761231b61221c565b5b6123278482856122de565b509392505050565b600082601f83011261234457612343612217565b5b81356123548482602086016122ed565b91505092915050565b60008060008060808587031215612377576123766120e3565b5b600061238587828801612202565b945050602061239687828801612177565b935050604085013567ffffffffffffffff8111156123b7576123b66120e8565b5b6123c38782880161232f565b925050606085013567ffffffffffffffff8111156123e4576123e36120e8565b5b6123f08782880161232f565b91505092959194509250565b612405816120ed565b82525050565b600060208201905061242060008301846123fc565b92915050565b60006020828403121561243c5761243b6120e3565b5b600061244a84828501612202565b91505092915050565b60008115159050919050565b61246881612453565b82525050565b6000602082019050612483600083018461245f565b92915050565b61249281612156565b82525050565b60006020820190506124ad6000830184612489565b92915050565b6124bc816121d9565b82525050565b60006020820190506124d760008301846124b3565b92915050565b6124e6816121d9565b82525050565b6124f581612156565b82525050565b600081519050919050565b600082825260208201905092915050565b60005b8381101561253557808201518184015260208101905061251a565b83811115612544576000848401525b50505050565b6000612555826124fb565b61255f8185612506565b935061256f818560208601612517565b61257881612221565b840191505092915050565b600081519050919050565b600082825260208201905092915050565b6000819050602082019050919050565b60006125bb83836124dd565b60208301905092915050565b6000602082019050919050565b60006125df82612583565b6125e9818561258e565b93506125f48361259f565b8060005b8381101561262557815161260c88826125af565b9750612617836125c7565b9250506001810190506125f8565b5085935050505092915050565b61263b816120ed565b82525050565b61264a81612453565b82525050565b60006101408301600083015161266960008601826124dd565b50602083015161267c60208601826124ec565b5060408301518482036040860152612694828261254a565b915050606083015184820360608601526126ae828261254a565b915050608083015184820360808601526126c882826125d4565b91505060a08301516126dd60a0860182612632565b5060c08301516126f060c0860182612632565b5060e083015161270360e08601826124ec565b50610100830151612718610100860182612641565b5061012083015161272d610120860182612641565b508091505092915050565b600060208201905081810360008301526127528184612650565b905092915050565b60008060408385031215612771576127706120e3565b5b600061277f85828601612202565b925050602061279085828601612177565b9150509250929050565b6127a381612453565b81146127ae57600080fd5b50565b6000813590506127c08161279a565b92915050565b600080604083850312156127dd576127dc6120e3565b5b60006127eb85828601612177565b92505060206127fc858286016127b1565b9150509250929050565b600082825260208201905092915050565b7f4f776e61626c653a2063616c6c6572206973206e6f7420746865206f776e6572600082015250565b600061284d602083612806565b915061285882612817565b602082019050919050565b6000602082019050818103600083015261287c81612840565b9050919050565b7f4e487b7100000000000000000000000000000000000000000000000000000000600052603260045260246000fd5b7f4e487b7100000000000000000000000000000000000000000000000000000000600052602260045260246000fd5b600060028204905060018216806128f957607f821691505b6020821081141561290d5761290c6128b2565b5b50919050565b60008151905061292281612160565b92915050565b60006020828403121561293e5761293d6120e3565b5b600061294c84828501612913565b91505092915050565b7f596f75206e656564206174206c656173742031204e465420666f72206163746960008201527f6f6e732e00000000000000000000000000000000000000000000000000000000602082015250565b60006129b1602483612806565b91506129bc82612955565b604082019050919050565b600060208201905081810360008301526129e0816129a4565b9050919050565b7f596f75206e656564206174206c656173742032204e465420666f72206163746960008201527f6f6e732e00000000000000000000000000000000000000000000000000000000602082015250565b6000612a43602483612806565b9150612a4e826129e7565b604082019050919050565b60006020820190508181036000830152612a7281612a36565b9050919050565b7f4e6f742073756666696369656e742066756e6473000000000000000000000000600082015250565b6000612aaf601483612806565b9150612aba82612a79565b602082019050919050565b60006020820190508181036000830152612ade81612aa2565b9050919050565b7f4e487b7100000000000000000000000000000000000000000000000000000000600052601160045260246000fd5b6000612b1f82612156565b9150612b2a83612156565b9250827fffffffffffffffffffffffffffffffffffffffffffffffffffffffffffffffff03821115612b5f57612b5e612ae5565b5b828201905092915050565b6000612b7582612156565b9150612b8083612156565b925082821015612b9357612b92612ae5565b5b828203905092915050565b7f4f6e6c79206b65657065722063616e206465636c696e6520766f74696e670000600082015250565b6000612bd4601e83612806565b9150612bdf82612b9e565b602082019050919050565b60006020820190508181036000830152612c0381612bc7565b9050919050565b6000612c1582612156565b91507fffffffffffffffffffffffffffffffffffffffffffffffffffffffffffffffff821415612c4857612c47612ae5565b5b600182019050919050565b7f416c726561647920766f74656400000000000000000000000000000000000000600082015250565b6000612c89600d83612806565b9150612c9482612c53565b602082019050919050565b60006020820190508181036000830152612cb881612c7c565b9050919050565b7f416c726561647920636c6f736564000000000000000000000000000000000000600082015250565b6000612cf5600e83612806565b9150612d0082612cbf565b602082019050919050565b60006020820190508181036000830152612d2481612ce8565b9050919050565b6000612d36826120ed565b9150612d41836120ed565b92508263ffffffff03821115612d5a57612d59612ae5565b5b828201905092915050565b7f4f776e61626c653a206e6577206f776e657220697320746865207a65726f206160008201527f6464726573730000000000000000000000000000000000000000000000000000602082015250565b6000612dc1602683612806565b9150612dcc82612d65565b604082019050919050565b60006020820190508181036000830152612df081612db4565b9050919050565b60007fffffffff0000000000000000000000000000000000000000000000000000000082169050919050565b612e2c81612df7565b82525050565b6000602082019050612e476000830184612e23565b92915050565b600081519050919050565b600081905092915050565b6000612e6e82612e4d565b612e788185612e58565b9350612e88818560208601612517565b80840191505092915050565b6000612ea08284612e63565b915081905092915050565b600081519050612eba8161279a565b92915050565b600060208284031215612ed657612ed56120e3565b5b6000612ee484828501612eab565b9150509291505056fea2646970667358221220e7de316fee336942d617c37be2cf4995fec4b374f44f96c1dd1355d31477c9be64736f6c634300080a0033",
  "immutableReferences": {},
  "source": "// SPDX-License-Identifier: MIT\r\npragma solidity 0.8.10;\r\n\r\nimport \"openzeppelin-solidity/contracts/access/Ownable.sol\";\r\nimport \"openzeppelin-solidity/contracts/utils/introspection/ERC165Checker.sol\";\r\n\r\n//         .\r\n//    NFT .\r\n\r\ninterface IERC721 {\r\n    /**\r\n     * @dev Returns the number of tokens in ``owner``'s account.\r\n     */\r\n    function balanceOf(address owner) external view returns (uint256 balance);\r\n}\r\n\r\ncontract RarinonDAO is Ownable {\r\n    IERC721 _nft;  // Base NFT token for DAO voting.\r\n    uint256 public vote_period; // vote_id length in seconds.\r\n    uint32 public quorum; // How many votes nedded to accept or reject voting.\r\n\r\n    struct Proposal{\r\n        address account; //  \r\n        uint256 amount; //   \r\n        string title; //   (   )\r\n        string url; // URL     (http://--html--)\r\n        address[] voters; //  \r\n        uint32 nyes; //   \r\n        uint32 nno; //   \r\n        uint256 end_at; //   \r\n        bool closed; //  \r\n        bool approved; //   (  )\r\n    }\r\n\r\n    Proposal[] _history;\r\n\r\n    event Open(uint256 indexed vote_id, address indexed author);\r\n    event Vote(uint256 indexed vote_id, address indexed voter, bool indexed yes);\r\n    event Close(uint256 indexed vote_id, bool indexed approved);\r\n\r\n    mapping(address => bool) _keepers;\r\n\r\n    constructor(address nft, uint256 vote_period_, uint32 quorum_, address[] memory keepers) {\r\n        require(nft != address(0), \"nft can not be 0\");\r\n        require(ERC165Checker.supportsERC165(nft), \"address does not support IERC165\");\r\n        require(vote_period_ > 0, \"vote_period_ must be greather 0\");\r\n        require(quorum_ > 1, \"quorum must be greather 1\");\r\n\r\n        _nft = IERC721(nft);\r\n        vote_period = vote_period_;\r\n        quorum = quorum_;\r\n\r\n        for (uint8 i = 0; i < keepers.length; i++)\r\n            _keepers[keepers[i]] = true;\r\n    }\r\n\r\n    function is_keeper(address adr) public view returns(bool){\r\n        return _keepers[adr];\r\n    }\r\n\r\n    function historyCount() public view returns (uint256){\r\n        return _history.length;\r\n    }\r\n\r\n    function history(uint256 index) public view returns (Proposal memory){\r\n        return _history[index];\r\n    }\r\n\r\n    function set_vote_period(uint256 vote_period_) onlyOwner public {\r\n        vote_period = vote_period_; \r\n    }\r\n\r\n    function set_quorum(uint32 quorum_) onlyOwner public {\r\n        quorum = quorum_;\r\n    }\r\n\r\n    modifier onlyMember() {        \r\n        require(_nft.balanceOf(msg.sender) > 0, \"You need at least 1 NFT for actions.\");\r\n        _;\r\n    }\r\n\r\n    function didVote(address voter, uint256 vote_id) public view returns (bool) {\r\n        require(vote_id < _history.length);\r\n        Proposal memory proposal = _history[vote_id];\r\n        for (uint256 i = 0; i < proposal.voters.length; i++){\r\n            if (proposal.voters[i] == voter) return true;\r\n        }\r\n        return false;\r\n    }\r\n\r\n    //  .\r\n    function addProposal(address account, uint256 amount, string memory title, string memory url) onlyMember public {\r\n        require(_nft.balanceOf(msg.sender) > 1, \"You need at least 2 NFT for actions.\");\r\n        require(address(this).balance >= amount, \"Not sufficient funds\");\r\n\r\n        address[] memory dump;\r\n        Proposal memory proposal = Proposal(account, amount, title, url, dump, 0, 0, block.timestamp + vote_period, false, false);\r\n        _history.push(proposal);\r\n\r\n        emit Open(_history.length - 1, msg.sender);\r\n    }\r\n\r\n    //\r\n    function vote(uint256 vote_id, bool yes) onlyMember public {\r\n        require(!didVote(msg.sender, vote_id), \"Already voted\");\r\n\r\n        Proposal storage proposal = _history[vote_id];\r\n        require(!proposal.closed, \"Already closed\");\r\n\r\n        proposal.voters.push(msg.sender);\r\n\r\n        if (yes){\r\n            proposal.nyes = proposal.nyes + 1;\r\n        }\r\n        else\r\n        {\r\n            proposal.nno = proposal.nno + 1;\r\n        }\r\n\r\n        emit Vote(vote_id, msg.sender, yes);\r\n\r\n        if (canClose(vote_id)) close(vote_id);\r\n    }\r\n\r\n    // Keeper function to decline voting immidiately.\r\n    function decline(uint256 vote_id) public {\r\n        require(is_keeper(msg.sender), \"Only keeper can decline voting\");\r\n        _close(vote_id, false);        \r\n    }\r\n\r\n    function canClose(uint256 vote_id) public view returns (bool){\r\n        require(vote_id < _history.length);\r\n        Proposal memory proposal = _history[vote_id];\r\n\r\n        return !proposal.closed && (proposal.nyes >= quorum || proposal.nno >= quorum || block.timestamp >= proposal.end_at);\r\n    }\r\n\r\n    function close(uint256 vote_id) public {\r\n        require(canClose(vote_id));\r\n        Proposal memory proposal = _history[vote_id];\r\n        _close(vote_id, proposal.nyes >= quorum);\r\n    }\r\n\r\n    function _close(uint256 vote_id, bool approved) private {\r\n        Proposal storage proposal = _history[vote_id];\r\n        require(!proposal.closed, \"Already closed\");\r\n        \r\n        proposal.closed = true;\r\n\r\n        if (approved) {\r\n            proposal.approved = true;\r\n            payable(proposal.account).transfer(proposal.amount);\r\n        }\r\n\r\n        emit Close(vote_id, proposal.approved);\r\n    }\r\n\r\n    // @notice Will receive any eth sent to the contract\r\n    receive() external payable {}\r\n}\r\n",
  "sourcePath": "D:\\dev\\git\\bia\\nftdaofond\\truffle\\contracts\\RarinonDAO.sol",
  "compiler": {
    "name": "solc",
    "version": "0.8.10+commit.fc410830.Emscripten.clang"
  },
  "schemaVersion": "3.4.3",
  "updatedAt": "2022-02-24T09:48:15.619Z",
  "devdoc": {
    "kind": "dev",
    "methods": {
      "owner()": {
        "details": "Returns the address of the current owner."
      },
      "renounceOwnership()": {
        "details": "Leaves the contract without owner. It will not be possible to call `onlyOwner` functions anymore. Can only be called by the current owner. NOTE: Renouncing ownership will leave the contract without an owner, thereby removing any functionality that is only available to the owner."
      },
      "transferOwnership(address)": {
        "details": "Transfers ownership of the contract to a new account (`newOwner`). Can only be called by the current owner."
      }
    },
    "version": 1
  },
  "userdoc": {
    "kind": "user",
    "methods": {},
    "version": 1
  }
}