{
  "contractName": "RarinonDAO",
  "abi": [
    {
      "inputs": [
        {
          "internalType": "address",
          "name": "nft",
          "type": "address"
        },
        {
          "internalType": "uint256",
          "name": "round_sec_",
          "type": "uint256"
        },
        {
          "internalType": "uint32",
          "name": "quorum_",
          "type": "uint32"
        }
      ],
      "stateMutability": "nonpayable",
      "type": "constructor"
    },
    {
      "anonymous": false,
      "inputs": [
        {
          "indexed": true,
          "internalType": "address",
          "name": "previousOwner",
          "type": "address"
        },
        {
          "indexed": true,
          "internalType": "address",
          "name": "newOwner",
          "type": "address"
        }
      ],
      "name": "OwnershipTransferred",
      "type": "event"
    },
    {
      "inputs": [],
      "name": "owner",
      "outputs": [
        {
          "internalType": "address",
          "name": "",
          "type": "address"
        }
      ],
      "stateMutability": "view",
      "type": "function"
    },
    {
      "inputs": [],
      "name": "quorum",
      "outputs": [
        {
          "internalType": "uint32",
          "name": "",
          "type": "uint32"
        }
      ],
      "stateMutability": "view",
      "type": "function"
    },
    {
      "inputs": [],
      "name": "renounceOwnership",
      "outputs": [],
      "stateMutability": "nonpayable",
      "type": "function"
    },
    {
      "inputs": [],
      "name": "round_sec",
      "outputs": [
        {
          "internalType": "uint256",
          "name": "",
          "type": "uint256"
        }
      ],
      "stateMutability": "view",
      "type": "function"
    },
    {
      "inputs": [
        {
          "internalType": "address",
          "name": "newOwner",
          "type": "address"
        }
      ],
      "name": "transferOwnership",
      "outputs": [],
      "stateMutability": "nonpayable",
      "type": "function"
    },
    {
      "stateMutability": "payable",
      "type": "receive"
    },
    {
      "inputs": [],
      "name": "historyCount",
      "outputs": [
        {
          "internalType": "uint256",
          "name": "",
          "type": "uint256"
        }
      ],
      "stateMutability": "view",
      "type": "function"
    },
    {
      "inputs": [
        {
          "internalType": "uint256",
          "name": "index",
          "type": "uint256"
        }
      ],
      "name": "history",
      "outputs": [
        {
          "components": [
            {
              "internalType": "address",
              "name": "account",
              "type": "address"
            },
            {
              "internalType": "uint256",
              "name": "amount",
              "type": "uint256"
            },
            {
              "internalType": "string",
              "name": "title",
              "type": "string"
            },
            {
              "internalType": "string",
              "name": "url",
              "type": "string"
            },
            {
              "internalType": "address[]",
              "name": "voters",
              "type": "address[]"
            },
            {
              "internalType": "uint32",
              "name": "nyes",
              "type": "uint32"
            },
            {
              "internalType": "uint32",
              "name": "nno",
              "type": "uint32"
            },
            {
              "internalType": "uint256",
              "name": "end_at",
              "type": "uint256"
            },
            {
              "internalType": "bool",
              "name": "closed",
              "type": "bool"
            },
            {
              "internalType": "bool",
              "name": "approved",
              "type": "bool"
            }
          ],
          "internalType": "struct RarinonDAO.Proposal",
          "name": "",
          "type": "tuple"
        }
      ],
      "stateMutability": "view",
      "type": "function"
    },
    {
      "inputs": [
        {
          "internalType": "uint256",
          "name": "round_sec_",
          "type": "uint256"
        }
      ],
      "name": "set_round_sec",
      "outputs": [],
      "stateMutability": "nonpayable",
      "type": "function"
    },
    {
      "inputs": [
        {
          "internalType": "uint32",
          "name": "quorum_",
          "type": "uint32"
        }
      ],
      "name": "set_quorum",
      "outputs": [],
      "stateMutability": "nonpayable",
      "type": "function"
    },
    {
      "inputs": [
        {
          "internalType": "address",
          "name": "voter",
          "type": "address"
        },
        {
          "internalType": "uint256",
          "name": "vote_id",
          "type": "uint256"
        }
      ],
      "name": "didVote",
      "outputs": [
        {
          "internalType": "bool",
          "name": "",
          "type": "bool"
        }
      ],
      "stateMutability": "view",
      "type": "function"
    },
    {
      "inputs": [
        {
          "internalType": "address",
          "name": "account",
          "type": "address"
        },
        {
          "internalType": "uint256",
          "name": "amount",
          "type": "uint256"
        },
        {
          "internalType": "string",
          "name": "title",
          "type": "string"
        },
        {
          "internalType": "string",
          "name": "url",
          "type": "string"
        }
      ],
      "name": "addProposal",
      "outputs": [],
      "stateMutability": "nonpayable",
      "type": "function"
    },
    {
      "inputs": [
        {
          "internalType": "uint256",
          "name": "vote_id",
          "type": "uint256"
        }
      ],
      "name": "voteYes",
      "outputs": [],
      "stateMutability": "nonpayable",
      "type": "function"
    },
    {
      "inputs": [
        {
          "internalType": "uint256",
          "name": "vote_id",
          "type": "uint256"
        }
      ],
      "name": "voteNo",
      "outputs": [],
      "stateMutability": "nonpayable",
      "type": "function"
    },
    {
      "inputs": [
        {
          "internalType": "uint256",
          "name": "vote_id",
          "type": "uint256"
        }
      ],
      "name": "canClose",
      "outputs": [
        {
          "internalType": "bool",
          "name": "",
          "type": "bool"
        }
      ],
      "stateMutability": "view",
      "type": "function"
    },
    {
      "inputs": [
        {
          "internalType": "uint256",
          "name": "vote_id",
          "type": "uint256"
        }
      ],
      "name": "close",
      "outputs": [],
      "stateMutability": "nonpayable",
      "type": "function"
    }
  ],
  "bytecode": "0x60806040523480156200001157600080fd5b5060405162002a9338038062002a9383398181016040528101906200003791906200027b565b620000576200004b620000c960201b60201c565b620000d160201b60201c565b82600160006101000a81548173ffffffffffffffffffffffffffffffffffffffff021916908373ffffffffffffffffffffffffffffffffffffffff1602179055508160028190555080600360006101000a81548163ffffffff021916908363ffffffff160217905550505050620002d7565b600033905090565b60008060009054906101000a900473ffffffffffffffffffffffffffffffffffffffff169050816000806101000a81548173ffffffffffffffffffffffffffffffffffffffff021916908373ffffffffffffffffffffffffffffffffffffffff1602179055508173ffffffffffffffffffffffffffffffffffffffff168173ffffffffffffffffffffffffffffffffffffffff167f8be0079c531659141344cd1fd0a4f28419497f9722a3daafe3b4186f6b6457e060405160405180910390a35050565b600080fd5b600073ffffffffffffffffffffffffffffffffffffffff82169050919050565b6000620001c7826200019a565b9050919050565b620001d981620001ba565b8114620001e557600080fd5b50565b600081519050620001f981620001ce565b92915050565b6000819050919050565b6200021481620001ff565b81146200022057600080fd5b50565b600081519050620002348162000209565b92915050565b600063ffffffff82169050919050565b62000255816200023a565b81146200026157600080fd5b50565b60008151905062000275816200024a565b92915050565b60008060006060848603121562000297576200029662000195565b5b6000620002a786828701620001e8565b9350506020620002ba8682870162000223565b9250506040620002cd8682870162000264565b9150509250925092565b6127ac80620002e76000396000f3fe6080604052600436106100eb5760003560e01c80636a1cf7211161008a578063a7a38f0b11610059578063a7a38f0b146102c2578063bda088d4146102ff578063d1933fe41461033c578063f2fde38b14610367576100f2565b80636a1cf7211461021a578063715018a61461024357806376740b5b1461025a5780638da5cb5b14610297576100f2565b80631703a018116100c65780631703a018146101725780631a6f7be51461019d5780633a9c9ffc146101c65780634793918f146101f1576100f2565b8062545821146100f75780630aebeb4e146101205780630e44c76214610149576100f2565b366100f257005b600080fd5b34801561010357600080fd5b5061011e60048036038101906101199190611c46565b610390565b005b34801561012c57600080fd5b5061014760048036038101906101429190611ca9565b610430565b005b34801561015557600080fd5b50610170600480360381019061016b9190611e7a565b6105a1565b005b34801561017e57600080fd5b506101876108bd565b6040516101949190611f28565b60405180910390f35b3480156101a957600080fd5b506101c460048036038101906101bf9190611ca9565b6108d3565b005b3480156101d257600080fd5b506101db610b37565b6040516101e89190611f52565b60405180910390f35b3480156101fd57600080fd5b5061021860048036038101906102139190611ca9565b610b44565b005b34801561022657600080fd5b50610241600480360381019061023c9190611ca9565b610bca565b005b34801561024f57600080fd5b50610258610e2e565b005b34801561026657600080fd5b50610281600480360381019061027c9190611ca9565b610eb6565b60405161028e9190611f88565b60405180910390f35b3480156102a357600080fd5b506102ac611212565b6040516102b99190611fb2565b60405180910390f35b3480156102ce57600080fd5b506102e960048036038101906102e49190611ca9565b61123b565b6040516102f69190612228565b60405180910390f35b34801561030b57600080fd5b506103266004803603810190610321919061224a565b611516565b6040516103339190611f88565b60405180910390f35b34801561034857600080fd5b50610351611886565b60405161035e9190611f52565b60405180910390f35b34801561037357600080fd5b5061038e6004803603810190610389919061228a565b61188c565b005b610398611984565b73ffffffffffffffffffffffffffffffffffffffff166103b6611212565b73ffffffffffffffffffffffffffffffffffffffff161461040c576040517f08c379a000000000000000000000000000000000000000000000000000000000815260040161040390612314565b60405180910390fd5b80600360006101000a81548163ffffffff021916908363ffffffff16021790555050565b61043981610eb6565b61044257600080fd5b60006004828154811061045857610457612334565b5b906000526020600020906008020190508060070160009054906101000a900460ff16156104ba576040517f08c379a00000000000000000000000000000000000000000000000000000000081526004016104b1906123af565b60405180910390fd5b60018160070160006101000a81548160ff021916908315150217905550600360009054906101000a900463ffffffff1663ffffffff168160050160009054906101000a900463ffffffff1663ffffffff161061059d5760018160070160016101000a81548160ff0219169083151502179055508060000160009054906101000a900473ffffffffffffffffffffffffffffffffffffffff1673ffffffffffffffffffffffffffffffffffffffff166108fc82600101549081150290604051600060405180830381858888f1935050505015801561059b573d6000803e3d6000fd5b505b5050565b6000600160009054906101000a900473ffffffffffffffffffffffffffffffffffffffff1673ffffffffffffffffffffffffffffffffffffffff166370a08231336040518263ffffffff1660e01b81526004016105fe9190611fb2565b602060405180830381865afa15801561061b573d6000803e3d6000fd5b505050506040513d601f19601f8201168201806040525081019061063f91906123e4565b1161067f576040517f08c379a000000000000000000000000000000000000000000000000000000000815260040161067690612483565b60405180910390fd5b824710156106c2576040517f08c379a00000000000000000000000000000000000000000000000000000000081526004016106b9906124ef565b60405180910390fd5b606060006040518061014001604052808773ffffffffffffffffffffffffffffffffffffffff168152602001868152602001858152602001848152602001838152602001600063ffffffff168152602001600063ffffffff1681526020016002544261072e919061253e565b8152602001600015158152602001600015158152509050600481908060018154018082558091505060019003906000526020600020906008020160009091909190915060008201518160000160006101000a81548173ffffffffffffffffffffffffffffffffffffffff021916908373ffffffffffffffffffffffffffffffffffffffff1602179055506020820151816001015560408201518160020190805190602001906107de929190611a50565b5060608201518160030190805190602001906107fb929190611a50565b506080820151816004019080519060200190610818929190611ad6565b5060a08201518160050160006101000a81548163ffffffff021916908363ffffffff16021790555060c08201518160050160046101000a81548163ffffffff021916908363ffffffff16021790555060e082015181600601556101008201518160070160006101000a81548160ff0219169083151502179055506101208201518160070160016101000a81548160ff0219169083151502179055505050505050505050565b600360009054906101000a900463ffffffff1681565b6000600160009054906101000a900473ffffffffffffffffffffffffffffffffffffffff1673ffffffffffffffffffffffffffffffffffffffff166370a08231336040518263ffffffff1660e01b81526004016109309190611fb2565b602060405180830381865afa15801561094d573d6000803e3d6000fd5b505050506040513d601f19601f8201168201806040525081019061097191906123e4565b116109b1576040517f08c379a00000000000000000000000000000000000000000000000000000000081526004016109a890612483565b60405180910390fd5b6109bb3382611516565b156109fb576040517f08c379a00000000000000000000000000000000000000000000000000000000081526004016109f2906125e0565b60405180910390fd5b600060048281548110610a1157610a10612334565b5b906000526020600020906008020190508060070160009054906101000a900460ff1615610a73576040517f08c379a0000000000000000000000000000000000000000000000000000000008152600401610a6a906123af565b60405180910390fd5b60018160050160049054906101000a900463ffffffff16610a949190612600565b8160050160046101000a81548163ffffffff021916908363ffffffff16021790555080600401339080600181540180825580915050600190039060005260206000200160009091909190916101000a81548173ffffffffffffffffffffffffffffffffffffffff021916908373ffffffffffffffffffffffffffffffffffffffff160217905550610b2482610eb6565b15610b3357610b3282610430565b5b5050565b6000600480549050905090565b610b4c611984565b73ffffffffffffffffffffffffffffffffffffffff16610b6a611212565b73ffffffffffffffffffffffffffffffffffffffff1614610bc0576040517f08c379a0000000000000000000000000000000000000000000000000000000008152600401610bb790612314565b60405180910390fd5b8060028190555050565b6000600160009054906101000a900473ffffffffffffffffffffffffffffffffffffffff1673ffffffffffffffffffffffffffffffffffffffff166370a08231336040518263ffffffff1660e01b8152600401610c279190611fb2565b602060405180830381865afa158015610c44573d6000803e3d6000fd5b505050506040513d601f19601f82011682018060405250810190610c6891906123e4565b11610ca8576040517f08c379a0000000000000000000000000000000000000000000000000000000008152600401610c9f90612483565b60405180910390fd5b610cb23382611516565b15610cf2576040517f08c379a0000000000000000000000000000000000000000000000000000000008152600401610ce9906125e0565b60405180910390fd5b600060048281548110610d0857610d07612334565b5b906000526020600020906008020190508060070160009054906101000a900460ff1615610d6a576040517f08c379a0000000000000000000000000000000000000000000000000000000008152600401610d61906123af565b60405180910390fd5b60018160050160009054906101000a900463ffffffff16610d8b9190612600565b8160050160006101000a81548163ffffffff021916908363ffffffff16021790555080600401339080600181540180825580915050600190039060005260206000200160009091909190916101000a81548173ffffffffffffffffffffffffffffffffffffffff021916908373ffffffffffffffffffffffffffffffffffffffff160217905550610e1b82610eb6565b15610e2a57610e2982610430565b5b5050565b610e36611984565b73ffffffffffffffffffffffffffffffffffffffff16610e54611212565b73ffffffffffffffffffffffffffffffffffffffff1614610eaa576040517f08c379a0000000000000000000000000000000000000000000000000000000008152600401610ea190612314565b60405180910390fd5b610eb4600061198c565b565b60006004805490508210610ec957600080fd5b600060048381548110610edf57610ede612334565b5b9060005260206000209060080201604051806101400160405290816000820160009054906101000a900473ffffffffffffffffffffffffffffffffffffffff1673ffffffffffffffffffffffffffffffffffffffff1673ffffffffffffffffffffffffffffffffffffffff16815260200160018201548152602001600282018054610f6990612669565b80601f0160208091040260200160405190810160405280929190818152602001828054610f9590612669565b8015610fe25780601f10610fb757610100808354040283529160200191610fe2565b820191906000526020600020905b815481529060010190602001808311610fc557829003601f168201915b50505050508152602001600382018054610ffb90612669565b80601f016020809104026020016040519081016040528092919081815260200182805461102790612669565b80156110745780601f1061104957610100808354040283529160200191611074565b820191906000526020600020905b81548152906001019060200180831161105757829003601f168201915b505050505081526020016004820180548060200260200160405190810160405280929190818152602001828054801561110257602002820191906000526020600020905b8160009054906101000a900473ffffffffffffffffffffffffffffffffffffffff1673ffffffffffffffffffffffffffffffffffffffff16815260200190600101908083116110b8575b505050505081526020016005820160009054906101000a900463ffffffff1663ffffffff1663ffffffff1681526020016005820160049054906101000a900463ffffffff1663ffffffff1663ffffffff168152602001600682015481526020016007820160009054906101000a900460ff161515151581526020016007820160019054906101000a900460ff161515151581525050905080610100015115801561120a5750600360009054906101000a900463ffffffff1663ffffffff168160a0015163ffffffff161015806111fa5750600360009054906101000a900463ffffffff1663ffffffff168160c0015163ffffffff1610155b8061120957508060e001514210155b5b915050919050565b60008060009054906101000a900473ffffffffffffffffffffffffffffffffffffffff16905090565b611243611b60565b6004828154811061125757611256612334565b5b9060005260206000209060080201604051806101400160405290816000820160009054906101000a900473ffffffffffffffffffffffffffffffffffffffff1673ffffffffffffffffffffffffffffffffffffffff1673ffffffffffffffffffffffffffffffffffffffff168152602001600182015481526020016002820180546112e190612669565b80601f016020809104026020016040519081016040528092919081815260200182805461130d90612669565b801561135a5780601f1061132f5761010080835404028352916020019161135a565b820191906000526020600020905b81548152906001019060200180831161133d57829003601f168201915b5050505050815260200160038201805461137390612669565b80601f016020809104026020016040519081016040528092919081815260200182805461139f90612669565b80156113ec5780601f106113c1576101008083540402835291602001916113ec565b820191906000526020600020905b8154815290600101906020018083116113cf57829003601f168201915b505050505081526020016004820180548060200260200160405190810160405280929190818152602001828054801561147a57602002820191906000526020600020905b8160009054906101000a900473ffffffffffffffffffffffffffffffffffffffff1673ffffffffffffffffffffffffffffffffffffffff1681526020019060010190808311611430575b505050505081526020016005820160009054906101000a900463ffffffff1663ffffffff1663ffffffff1681526020016005820160049054906101000a900463ffffffff1663ffffffff1663ffffffff168152602001600682015481526020016007820160009054906101000a900460ff161515151581526020016007820160019054906101000a900460ff1615151515815250509050919050565b6000600480549050821061152957600080fd5b60006004838154811061153f5761153e612334565b5b9060005260206000209060080201604051806101400160405290816000820160009054906101000a900473ffffffffffffffffffffffffffffffffffffffff1673ffffffffffffffffffffffffffffffffffffffff1673ffffffffffffffffffffffffffffffffffffffff168152602001600182015481526020016002820180546115c990612669565b80601f01602080910402602001604051908101604052809291908181526020018280546115f590612669565b80156116425780601f1061161757610100808354040283529160200191611642565b820191906000526020600020905b81548152906001019060200180831161162557829003601f168201915b5050505050815260200160038201805461165b90612669565b80601f016020809104026020016040519081016040528092919081815260200182805461168790612669565b80156116d45780601f106116a9576101008083540402835291602001916116d4565b820191906000526020600020905b8154815290600101906020018083116116b757829003601f168201915b505050505081526020016004820180548060200260200160405190810160405280929190818152602001828054801561176257602002820191906000526020600020905b8160009054906101000a900473ffffffffffffffffffffffffffffffffffffffff1673ffffffffffffffffffffffffffffffffffffffff1681526020019060010190808311611718575b505050505081526020016005820160009054906101000a900463ffffffff1663ffffffff1663ffffffff1681526020016005820160049054906101000a900463ffffffff1663ffffffff1663ffffffff168152602001600682015481526020016007820160009054906101000a900460ff161515151581526020016007820160019054906101000a900460ff161515151581525050905060005b816080015151811015611879578473ffffffffffffffffffffffffffffffffffffffff168260800151828151811061183757611836612334565b5b602002602001015173ffffffffffffffffffffffffffffffffffffffff16141561186657600192505050611880565b80806118719061269b565b9150506117fc565b5060009150505b92915050565b60025481565b611894611984565b73ffffffffffffffffffffffffffffffffffffffff166118b2611212565b73ffffffffffffffffffffffffffffffffffffffff1614611908576040517f08c379a00000000000000000000000000000000000000000000000000000000081526004016118ff90612314565b60405180910390fd5b600073ffffffffffffffffffffffffffffffffffffffff168173ffffffffffffffffffffffffffffffffffffffff161415611978576040517f08c379a000000000000000000000000000000000000000000000000000000000815260040161196f90612756565b60405180910390fd5b6119818161198c565b50565b600033905090565b60008060009054906101000a900473ffffffffffffffffffffffffffffffffffffffff169050816000806101000a81548173ffffffffffffffffffffffffffffffffffffffff021916908373ffffffffffffffffffffffffffffffffffffffff1602179055508173ffffffffffffffffffffffffffffffffffffffff168173ffffffffffffffffffffffffffffffffffffffff167f8be0079c531659141344cd1fd0a4f28419497f9722a3daafe3b4186f6b6457e060405160405180910390a35050565b828054611a5c90612669565b90600052602060002090601f016020900481019282611a7e5760008555611ac5565b82601f10611a9757805160ff1916838001178555611ac5565b82800160010185558215611ac5579182015b82811115611ac4578251825591602001919060010190611aa9565b5b509050611ad29190611bd9565b5090565b828054828255906000526020600020908101928215611b4f579160200282015b82811115611b4e5782518260006101000a81548173ffffffffffffffffffffffffffffffffffffffff021916908373ffffffffffffffffffffffffffffffffffffffff16021790555091602001919060010190611af6565b5b509050611b5c9190611bd9565b5090565b604051806101400160405280600073ffffffffffffffffffffffffffffffffffffffff16815260200160008152602001606081526020016060815260200160608152602001600063ffffffff168152602001600063ffffffff168152602001600081526020016000151581526020016000151581525090565b5b80821115611bf2576000816000905550600101611bda565b5090565b6000604051905090565b600080fd5b600080fd5b600063ffffffff82169050919050565b611c2381611c0a565b8114611c2e57600080fd5b50565b600081359050611c4081611c1a565b92915050565b600060208284031215611c5c57611c5b611c00565b5b6000611c6a84828501611c31565b91505092915050565b6000819050919050565b611c8681611c73565b8114611c9157600080fd5b50565b600081359050611ca381611c7d565b92915050565b600060208284031215611cbf57611cbe611c00565b5b6000611ccd84828501611c94565b91505092915050565b600073ffffffffffffffffffffffffffffffffffffffff82169050919050565b6000611d0182611cd6565b9050919050565b611d1181611cf6565b8114611d1c57600080fd5b50565b600081359050611d2e81611d08565b92915050565b600080fd5b600080fd5b6000601f19601f8301169050919050565b7f4e487b7100000000000000000000000000000000000000000000000000000000600052604160045260246000fd5b611d8782611d3e565b810181811067ffffffffffffffff82111715611da657611da5611d4f565b5b80604052505050565b6000611db9611bf6565b9050611dc58282611d7e565b919050565b600067ffffffffffffffff821115611de557611de4611d4f565b5b611dee82611d3e565b9050602081019050919050565b82818337600083830152505050565b6000611e1d611e1884611dca565b611daf565b905082815260208101848484011115611e3957611e38611d39565b5b611e44848285611dfb565b509392505050565b600082601f830112611e6157611e60611d34565b5b8135611e71848260208601611e0a565b91505092915050565b60008060008060808587031215611e9457611e93611c00565b5b6000611ea287828801611d1f565b9450506020611eb387828801611c94565b935050604085013567ffffffffffffffff811115611ed457611ed3611c05565b5b611ee087828801611e4c565b925050606085013567ffffffffffffffff811115611f0157611f00611c05565b5b611f0d87828801611e4c565b91505092959194509250565b611f2281611c0a565b82525050565b6000602082019050611f3d6000830184611f19565b92915050565b611f4c81611c73565b82525050565b6000602082019050611f676000830184611f43565b92915050565b60008115159050919050565b611f8281611f6d565b82525050565b6000602082019050611f9d6000830184611f79565b92915050565b611fac81611cf6565b82525050565b6000602082019050611fc76000830184611fa3565b92915050565b611fd681611cf6565b82525050565b611fe581611c73565b82525050565b600081519050919050565b600082825260208201905092915050565b60005b8381101561202557808201518184015260208101905061200a565b83811115612034576000848401525b50505050565b600061204582611feb565b61204f8185611ff6565b935061205f818560208601612007565b61206881611d3e565b840191505092915050565b600081519050919050565b600082825260208201905092915050565b6000819050602082019050919050565b60006120ab8383611fcd565b60208301905092915050565b6000602082019050919050565b60006120cf82612073565b6120d9818561207e565b93506120e48361208f565b8060005b838110156121155781516120fc888261209f565b9750612107836120b7565b9250506001810190506120e8565b5085935050505092915050565b61212b81611c0a565b82525050565b61213a81611f6d565b82525050565b6000610140830160008301516121596000860182611fcd565b50602083015161216c6020860182611fdc565b5060408301518482036040860152612184828261203a565b9150506060830151848203606086015261219e828261203a565b915050608083015184820360808601526121b882826120c4565b91505060a08301516121cd60a0860182612122565b5060c08301516121e060c0860182612122565b5060e08301516121f360e0860182611fdc565b50610100830151612208610100860182612131565b5061012083015161221d610120860182612131565b508091505092915050565b600060208201905081810360008301526122428184612140565b905092915050565b6000806040838503121561226157612260611c00565b5b600061226f85828601611d1f565b925050602061228085828601611c94565b9150509250929050565b6000602082840312156122a05761229f611c00565b5b60006122ae84828501611d1f565b91505092915050565b600082825260208201905092915050565b7f4f776e61626c653a2063616c6c6572206973206e6f7420746865206f776e6572600082015250565b60006122fe6020836122b7565b9150612309826122c8565b602082019050919050565b6000602082019050818103600083015261232d816122f1565b9050919050565b7f4e487b7100000000000000000000000000000000000000000000000000000000600052603260045260246000fd5b7f416c726561647920636c6f736564000000000000000000000000000000000000600082015250565b6000612399600e836122b7565b91506123a482612363565b602082019050919050565b600060208201905081810360008301526123c88161238c565b9050919050565b6000815190506123de81611c7d565b92915050565b6000602082840312156123fa576123f9611c00565b5b6000612408848285016123cf565b91505092915050565b7f596f75206e656564206174206c656173742031204e465420666f72206163746960008201527f6f6e732e00000000000000000000000000000000000000000000000000000000602082015250565b600061246d6024836122b7565b915061247882612411565b604082019050919050565b6000602082019050818103600083015261249c81612460565b9050919050565b7f4e6f742073756666696369656e742066756e6473000000000000000000000000600082015250565b60006124d96014836122b7565b91506124e4826124a3565b602082019050919050565b60006020820190508181036000830152612508816124cc565b9050919050565b7f4e487b7100000000000000000000000000000000000000000000000000000000600052601160045260246000fd5b600061254982611c73565b915061255483611c73565b9250827fffffffffffffffffffffffffffffffffffffffffffffffffffffffffffffffff038211156125895761258861250f565b5b828201905092915050565b7f416c726561647920766f74656400000000000000000000000000000000000000600082015250565b60006125ca600d836122b7565b91506125d582612594565b602082019050919050565b600060208201905081810360008301526125f9816125bd565b9050919050565b600061260b82611c0a565b915061261683611c0a565b92508263ffffffff0382111561262f5761262e61250f565b5b828201905092915050565b7f4e487b7100000000000000000000000000000000000000000000000000000000600052602260045260246000fd5b6000600282049050600182168061268157607f821691505b602082108114156126955761269461263a565b5b50919050565b60006126a682611c73565b91507fffffffffffffffffffffffffffffffffffffffffffffffffffffffffffffffff8214156126d9576126d861250f565b5b600182019050919050565b7f4f776e61626c653a206e6577206f776e657220697320746865207a65726f206160008201527f6464726573730000000000000000000000000000000000000000000000000000602082015250565b60006127406026836122b7565b915061274b826126e4565b604082019050919050565b6000602082019050818103600083015261276f81612733565b905091905056fea264697066735822122063944c33d98709e606d64eefacafba7101997bf28aa8f00c378be70d26a5b65564736f6c634300080a0033",
  "immutableReferences": {},
  "source": "// SPDX-License-Identifier: MIT\r\npragma solidity 0.8.10;\r\n\r\nimport \"openzeppelin-solidity/contracts/access/Ownable.sol\";\r\n\r\n//         .\r\n//    NFT .\r\n\r\ninterface IERC721 {\r\n    /**\r\n     * @dev Returns the number of tokens in ``owner``'s account.\r\n     */\r\n    function balanceOf(address owner) external view returns (uint256 balance);\r\n}\r\n\r\ncontract RarinonDAO is Ownable {\r\n    IERC721 _nft;  // Base NFT token for DAO voting.\r\n    uint256 public round_sec; // Round length in seconds.\r\n    uint32 public quorum; // How many votes nedded to accept or reject voting.\r\n\r\n    struct Proposal{\r\n        address account; //  \r\n        uint256 amount; //   \r\n        string title; //   (   )\r\n        string url; // URL     (http://--html--)\r\n        address[] voters; //  \r\n        uint32 nyes; //   \r\n        uint32 nno; //   \r\n        uint256 end_at; //   \r\n        bool closed; //  \r\n        bool approved; //   (  )\r\n    }\r\n\r\n    Proposal[] _history;\r\n\r\n    function historyCount() public view returns (uint256){\r\n        return _history.length;\r\n    }\r\n\r\n    function history(uint256 index) public view returns (Proposal memory){\r\n        return _history[index];\r\n    }\r\n\r\n    constructor(address nft, uint256 round_sec_, uint32 quorum_) {\r\n        _nft = IERC721(nft);\r\n        round_sec = round_sec_;\r\n        quorum = quorum_;\r\n    }\r\n\r\n    function set_round_sec(uint256 round_sec_) onlyOwner public {\r\n        round_sec = round_sec_;\r\n    }\r\n\r\n    function set_quorum(uint32 quorum_) onlyOwner public {\r\n        quorum = quorum_;\r\n    }\r\n\r\n    modifier onlyMember() {        \r\n        require(_nft.balanceOf(msg.sender) > 0, \"You need at least 1 NFT for actions.\");\r\n        _;\r\n    }\r\n\r\n    function didVote(address voter, uint256 vote_id) public view returns (bool) {\r\n        require(vote_id < _history.length);\r\n        Proposal memory proposal = _history[vote_id];\r\n        for (uint256 i = 0; i < proposal.voters.length; i++){\r\n            if (proposal.voters[i] == voter) return true;\r\n        }\r\n        return false;\r\n    }\r\n\r\n    //  .\r\n    function addProposal(address account, uint256 amount, string memory title, string memory url) onlyMember public {\r\n        require(address(this).balance >= amount, \"Not sufficient funds\");\r\n\r\n        address[] memory dump;\r\n        Proposal memory proposal = Proposal(account, amount, title, url, dump, 0, 0, block.timestamp + round_sec, false, false);\r\n        _history.push(proposal);\r\n    }\r\n\r\n    //\r\n    function voteYes(uint256 vote_id) onlyMember public {\r\n        require(!didVote(msg.sender, vote_id), \"Already voted\");\r\n\r\n        Proposal storage proposal = _history[vote_id];\r\n        require(!proposal.closed, \"Already closed\");\r\n\r\n        proposal.nyes = proposal.nyes + 1;\r\n        proposal.voters.push(msg.sender);\r\n\r\n        if (canClose(vote_id)) close(vote_id);\r\n    }\r\n\r\n    function voteNo(uint256 vote_id) onlyMember public {\r\n        require(!didVote(msg.sender, vote_id), \"Already voted\");\r\n\r\n        Proposal storage proposal = _history[vote_id];\r\n        require(!proposal.closed, \"Already closed\");\r\n\r\n        proposal.nno = proposal.nno + 1;\r\n        proposal.voters.push(msg.sender);\r\n\r\n        if (canClose(vote_id)) close(vote_id);\r\n    }\r\n\r\n    function canClose(uint256 vote_id) public view returns (bool){\r\n        require(vote_id < _history.length);\r\n        Proposal memory proposal = _history[vote_id];\r\n\r\n        return !proposal.closed && (proposal.nyes >= quorum || proposal.nno >= quorum || block.timestamp >= proposal.end_at);\r\n    }\r\n\r\n    function close(uint256 vote_id) public {\r\n        require(canClose(vote_id));\r\n        \r\n        Proposal storage proposal = _history[vote_id];\r\n        require(!proposal.closed, \"Already closed\");\r\n\r\n        proposal.closed = true;\r\n\r\n        // Quorum agreed proposal. Transfer money.\r\n        if (proposal.nyes >= quorum){\r\n            proposal.approved = true;\r\n            payable(proposal.account).transfer(proposal.amount);\r\n        }\r\n    }\r\n\r\n    // @notice Will receive any eth sent to the contract\r\n    receive() external payable {}\r\n}\r\n",
  "sourcePath": "D:\\dev\\bia\\git\\nftdaofond\\truffle\\contracts\\RarinonDAO.sol",
  "compiler": {
    "name": "solc",
    "version": "0.8.10+commit.fc410830.Emscripten.clang"
  },
  "schemaVersion": "3.4.3",
  "updatedAt": "2021-12-17T11:50:50.779Z",
  "devdoc": {
    "kind": "dev",
    "methods": {
      "owner()": {
        "details": "Returns the address of the current owner."
      },
      "renounceOwnership()": {
        "details": "Leaves the contract without owner. It will not be possible to call `onlyOwner` functions anymore. Can only be called by the current owner. NOTE: Renouncing ownership will leave the contract without an owner, thereby removing any functionality that is only available to the owner."
      },
      "transferOwnership(address)": {
        "details": "Transfers ownership of the contract to a new account (`newOwner`). Can only be called by the current owner."
      }
    },
    "version": 1
  },
  "userdoc": {
    "kind": "user",
    "methods": {},
    "version": 1
  }
}